{
  "contractName": "Utopia",
  "abi": [
    {
      "constant": true,
      "inputs": [
        {
          "name": "",
          "type": "uint256"
        }
      ],
      "name": "owners",
      "outputs": [
        {
          "name": "",
          "type": "address"
        }
      ],
      "payable": false,
      "stateMutability": "view",
      "type": "function"
    },
    {
      "constant": true,
      "inputs": [],
      "name": "allowPublicAssign",
      "outputs": [
        {
          "name": "",
          "type": "bool"
        }
      ],
      "payable": false,
      "stateMutability": "view",
      "type": "function"
    },
    {
      "constant": true,
      "inputs": [
        {
          "name": "",
          "type": "uint256"
        }
      ],
      "name": "admins",
      "outputs": [
        {
          "name": "",
          "type": "address"
        }
      ],
      "payable": false,
      "stateMutability": "view",
      "type": "function"
    },
    {
      "constant": true,
      "inputs": [],
      "name": "fundsWallet",
      "outputs": [
        {
          "name": "",
          "type": "address"
        }
      ],
      "payable": false,
      "stateMutability": "view",
      "type": "function"
    },
    {
      "constant": true,
      "inputs": [],
      "name": "unitLandPrice",
      "outputs": [
        {
          "name": "",
          "type": "uint256"
        }
      ],
      "payable": false,
      "stateMutability": "view",
      "type": "function"
    },
    {
      "constant": true,
      "inputs": [
        {
          "name": "",
          "type": "address"
        },
        {
          "name": "",
          "type": "uint256"
        }
      ],
      "name": "lands",
      "outputs": [
        {
          "name": "x1",
          "type": "int256"
        },
        {
          "name": "x2",
          "type": "int256"
        },
        {
          "name": "y1",
          "type": "int256"
        },
        {
          "name": "y2",
          "type": "int256"
        },
        {
          "name": "time",
          "type": "uint256"
        },
        {
          "name": "hash",
          "type": "string"
        }
      ],
      "payable": false,
      "stateMutability": "view",
      "type": "function"
    },
    {
      "constant": true,
      "inputs": [
        {
          "name": "",
          "type": "address"
        }
      ],
      "name": "adminsMap",
      "outputs": [
        {
          "name": "",
          "type": "bool"
        }
      ],
      "payable": false,
      "stateMutability": "view",
      "type": "function"
    },
    {
      "inputs": [],
      "payable": false,
      "stateMutability": "nonpayable",
      "type": "constructor"
    },
    {
      "constant": true,
      "inputs": [],
      "name": "getOwners",
      "outputs": [
        {
          "name": "",
          "type": "address[]"
        }
      ],
      "payable": false,
      "stateMutability": "view",
      "type": "function"
    },
    {
      "constant": true,
      "inputs": [
        {
          "name": "owner",
          "type": "address"
        }
      ],
      "name": "getLands",
      "outputs": [
        {
          "components": [
            {
              "name": "x1",
              "type": "int256"
            },
            {
              "name": "x2",
              "type": "int256"
            },
            {
              "name": "y1",
              "type": "int256"
            },
            {
              "name": "y2",
              "type": "int256"
            },
            {
              "name": "time",
              "type": "uint256"
            },
            {
              "name": "hash",
              "type": "string"
            }
          ],
          "name": "",
          "type": "tuple[]"
        }
      ],
      "payable": false,
      "stateMutability": "view",
      "type": "function"
    },
    {
      "constant": true,
      "inputs": [
        {
          "name": "owner",
          "type": "address"
        },
        {
          "name": "index",
          "type": "uint256"
        }
      ],
      "name": "getLand",
      "outputs": [
        {
          "name": "x1",
          "type": "int256"
        },
        {
          "name": "y1",
          "type": "int256"
        },
        {
          "name": "x2",
          "type": "int256"
        },
        {
          "name": "y2",
          "type": "int256"
        },
        {
          "name": "time",
          "type": "uint256"
        },
        {
          "name": "hash",
          "type": "string"
        }
      ],
      "payable": false,
      "stateMutability": "view",
      "type": "function"
    },
    {
      "constant": false,
      "inputs": [
        {
          "name": "x1",
          "type": "int256"
        },
        {
          "name": "y1",
          "type": "int256"
        },
        {
          "name": "x2",
          "type": "int256"
        },
        {
          "name": "y2",
          "type": "int256"
        },
        {
          "name": "hash",
          "type": "string"
        }
      ],
      "name": "assignLand",
      "outputs": [],
      "payable": true,
      "stateMutability": "payable",
      "type": "function"
    },
    {
      "constant": false,
      "inputs": [
        {
          "name": "x1",
          "type": "int256"
        },
        {
          "name": "y1",
          "type": "int256"
        },
        {
          "name": "x2",
          "type": "int256"
        },
        {
          "name": "y2",
          "type": "int256"
        },
        {
          "name": "addr",
          "type": "address"
        }
      ],
      "name": "adminAssignLand",
      "outputs": [],
      "payable": false,
      "stateMutability": "nonpayable",
      "type": "function"
    },
    {
      "constant": false,
      "inputs": [
        {
          "name": "val",
          "type": "bool"
        }
      ],
      "name": "adminSetIsPublic",
      "outputs": [],
      "payable": false,
      "stateMutability": "nonpayable",
      "type": "function"
    },
    {
      "constant": false,
      "inputs": [
        {
          "name": "price",
          "type": "uint256"
        }
      ],
      "name": "adminSetUnitLandPrice",
      "outputs": [],
      "payable": false,
      "stateMutability": "nonpayable",
      "type": "function"
    },
    {
      "constant": false,
      "inputs": [
        {
          "name": "addr",
          "type": "address"
        }
      ],
      "name": "addAdmin",
      "outputs": [],
      "payable": false,
      "stateMutability": "nonpayable",
      "type": "function"
    },
    {
      "constant": false,
      "inputs": [
        {
          "name": "hash",
          "type": "string"
        },
        {
          "name": "index",
          "type": "uint256"
        }
      ],
      "name": "updateLand",
      "outputs": [
        {
          "name": "",
          "type": "bool"
        }
      ],
      "payable": false,
      "stateMutability": "nonpayable",
      "type": "function"
    },
    {
      "constant": true,
      "inputs": [
        {
          "name": "x1",
          "type": "int256"
        },
        {
          "name": "y1",
          "type": "int256"
        },
        {
          "name": "x2",
          "type": "int256"
        },
        {
          "name": "y2",
          "type": "int256"
        }
      ],
      "name": "landPrice",
      "outputs": [
        {
          "name": "",
          "type": "uint256"
        }
      ],
      "payable": false,
      "stateMutability": "view",
      "type": "function"
    },
    {
      "constant": true,
      "inputs": [
        {
          "name": "x",
          "type": "int256"
        }
      ],
      "name": "abs",
      "outputs": [
        {
          "name": "",
          "type": "uint256"
        }
      ],
      "payable": false,
      "stateMutability": "view",
      "type": "function"
    }
  ],
  "bytecode": "0x60806040526001600460006101000a81548160ff0219169083151502179055507338e41787d3f428fad17cfd5470c4cfc4c0ee3738600460016101000a81548173ffffffffffffffffffffffffffffffffffffffff021916908373ffffffffffffffffffffffffffffffffffffffff160217905550655af3107a40006005553480156200008b57600080fd5b50336001808054809190600101620000a4919062000156565b815481101515620000b157fe5b9060005260206000200160006101000a81548173ffffffffffffffffffffffffffffffffffffffff021916908373ffffffffffffffffffffffffffffffffffffffff16021790555060016000803373ffffffffffffffffffffffffffffffffffffffff1673ffffffffffffffffffffffffffffffffffffffff16815260200190815260200160002060006101000a81548160ff021916908315150217905550620001ad565b81548183558181111562000180578183600052602060002091820191016200017f919062000185565b5b505050565b620001aa91905b80821115620001a65760008160009055506001016200018c565b5090565b90565b611dd980620001bd6000396000f3006080604052600436106100fc576000357c0100000000000000000000000000000000000000000000000000000000900463ffffffff168063025e7c27146101015780630824c9121461013e57806314bfd6d0146101695780631b5ac4b5146101a65780632194f3a2146101e3578063254c44f51461020e5780632ebf964f1461024b57806365742555146102745780636fb4971d146102b65780636fc58f10146102e1578063704802751461031e578063756efcf71461034757806379eca727146103895780638ee344cc146103b2578063a0e67e2b146103db578063e117849714610406578063e8542b0714610443578063ef323a9d14610480575b600080fd5b34801561010d57600080fd5b5061012860048036036101239190810190611818565b61049c565b6040516101359190611a72565b60405180910390f35b34801561014a57600080fd5b506101536104da565b6040516101609190611b0d565b60405180910390f35b34801561017557600080fd5b50610190600480360361018b9190810190611818565b6104ed565b60405161019d9190611a72565b60405180910390f35b3480156101b257600080fd5b506101cd60048036036101c89190810190611632565b61052b565b6040516101da9190611bf8565b60405180910390f35b3480156101ef57600080fd5b506101f8610565565b6040516102059190611a72565b60405180910390f35b34801561021a57600080fd5b50610235600480360361023091908101906115a4565b61058b565b6040516102429190611aeb565b60405180910390f35b34801561025757600080fd5b50610272600480360361026d9190810190611818565b6106fe565b005b34801561028057600080fd5b5061029b600480360361029691908101906115cd565b61075f565b6040516102ad96959493929190611b90565b60405180910390f35b3480156102c257600080fd5b506102cb610a9c565b6040516102d89190611bf8565b60405180910390f35b3480156102ed57600080fd5b50610308600480360361030391908101906117c4565b610aa2565b6040516103159190611b0d565b60405180910390f35b34801561032a57600080fd5b50610345600480360361034091908101906115a4565b610b75565b005b34801561035357600080fd5b5061036e600480360361036991908101906115cd565b610cc9565b60405161038096959493929190611b28565b60405180910390f35b34801561039557600080fd5b506103b060048036036103ab91908101906116be565b610db9565b005b3480156103be57600080fd5b506103d960048036036103d49190810190611609565b610fc8565b005b3480156103e757600080fd5b506103f061103c565b6040516103fd9190611ac9565b60405180910390f35b34801561041257600080fd5b5061042d6004803603610428919081019061165b565b6110ca565b60405161043a9190611bf8565b60405180910390f35b34801561044f57600080fd5b5061046a600480360361046591908101906115a4565b6110f1565b6040516104779190611b0d565b60405180910390f35b61049a60048036036104959190810190611735565b611111565b005b6002818154811015156104ab57fe5b906000526020600020016000915054906101000a900473ffffffffffffffffffffffffffffffffffffffff1681565b600460009054906101000a900460ff1681565b6001818154811015156104fc57fe5b906000526020600020016000915054906101000a900473ffffffffffffffffffffffffffffffffffffffff1681565b600080821361055c57817fffffffffffffffffffffffffffffffffffffffffffffffffffffffffffffffff0261055e565b815b9050919050565b600460019054906101000a900473ffffffffffffffffffffffffffffffffffffffff1681565b6060600360008373ffffffffffffffffffffffffffffffffffffffff1673ffffffffffffffffffffffffffffffffffffffff168152602001908152602001600020805480602002602001604051908101604052809291908181526020016000905b828210156106f3578382906000526020600020906006020160c060405190810160405290816000820154815260200160018201548152602001600282015481526020016003820154815260200160048201548152602001600582018054600181600116156101000203166002900480601f0160208091040260200160405190810160405280929190818152602001828054600181600116156101000203166002900480156106db5780601f106106b0576101008083540402835291602001916106db565b820191906000526020600020905b8154815290600101906020018083116106be57829003601f168201915b505050505081525050815260200190600101906105ec565b505050509050919050565b6000803373ffffffffffffffffffffffffffffffffffffffff1673ffffffffffffffffffffffffffffffffffffffff16815260200190815260200160002060009054906101000a900460ff16151561075557600080fd5b8060058190555050565b6000806000806000606086600360008a73ffffffffffffffffffffffffffffffffffffffff1673ffffffffffffffffffffffffffffffffffffffff168152602001908152602001600020805490501115156107b957610a92565b600360008973ffffffffffffffffffffffffffffffffffffffff1673ffffffffffffffffffffffffffffffffffffffff1681526020019081526020016000208781548110151561080557fe5b9060005260206000209060060201600001549550600360008973ffffffffffffffffffffffffffffffffffffffff1673ffffffffffffffffffffffffffffffffffffffff1681526020019081526020016000208781548110151561086557fe5b9060005260206000209060060201600101549350600360008973ffffffffffffffffffffffffffffffffffffffff1673ffffffffffffffffffffffffffffffffffffffff168152602001908152602001600020878154811015156108c557fe5b9060005260206000209060060201600201549450600360008973ffffffffffffffffffffffffffffffffffffffff1673ffffffffffffffffffffffffffffffffffffffff1681526020019081526020016000208781548110151561092557fe5b9060005260206000209060060201600301549250600360008973ffffffffffffffffffffffffffffffffffffffff1673ffffffffffffffffffffffffffffffffffffffff1681526020019081526020016000208781548110151561098557fe5b9060005260206000209060060201600401549150600360008973ffffffffffffffffffffffffffffffffffffffff1673ffffffffffffffffffffffffffffffffffffffff168152602001908152602001600020878154811015156109e557fe5b90600052602060002090600602016005018054600181600116156101000203166002900480601f016020809104026020016040519081016040528092919081815260200182805460018160011615610100020316600290048015610a8a5780601f10610a5f57610100808354040283529160200191610a8a565b820191906000526020600020905b815481529060010190602001808311610a6d57829003601f168201915b505050505090505b9295509295509295565b60055481565b600081600360003373ffffffffffffffffffffffffffffffffffffffff1673ffffffffffffffffffffffffffffffffffffffff16815260200190815260200160002080549050111515610af85760009050610b6f565b82600360003373ffffffffffffffffffffffffffffffffffffffff1673ffffffffffffffffffffffffffffffffffffffff16815260200190815260200160002083815481101515610b4557fe5b90600052602060002090600602016005019080519060200190610b699291906113ad565b50600190505b92915050565b6000803373ffffffffffffffffffffffffffffffffffffffff1673ffffffffffffffffffffffffffffffffffffffff16815260200190815260200160002060009054906101000a900460ff161515610bcc57600080fd5b600073ffffffffffffffffffffffffffffffffffffffff168173ffffffffffffffffffffffffffffffffffffffff1614151515610c0557fe5b806001808054809190600101610c1b919061142d565b815481101515610c2757fe5b9060005260206000200160006101000a81548173ffffffffffffffffffffffffffffffffffffffff021916908373ffffffffffffffffffffffffffffffffffffffff16021790555060016000808373ffffffffffffffffffffffffffffffffffffffff1673ffffffffffffffffffffffffffffffffffffffff16815260200190815260200160002060006101000a81548160ff02191690831515021790555050565b600360205281600052604060002081815481101515610ce457fe5b906000526020600020906006020160009150915050806000015490806001015490806002015490806003015490806004015490806005018054600181600116156101000203166002900480601f016020809104026020016040519081016040528092919081815260200182805460018160011615610100020316600290048015610daf5780601f10610d8457610100808354040283529160200191610daf565b820191906000526020600020905b815481529060010190602001808311610d9257829003601f168201915b5050505050905086565b6000803373ffffffffffffffffffffffffffffffffffffffff1673ffffffffffffffffffffffffffffffffffffffff16815260200190815260200160002060009054906101000a900460ff161515610e1057600080fd5b6000600360008373ffffffffffffffffffffffffffffffffffffffff1673ffffffffffffffffffffffffffffffffffffffff16815260200190815260200160002080549050111515610ec757806002808054809190600101610e72919061142d565b815481101515610e7e57fe5b9060005260206000200160006101000a81548173ffffffffffffffffffffffffffffffffffffffff021916908373ffffffffffffffffffffffffffffffffffffffff1602179055505b600360008273ffffffffffffffffffffffffffffffffffffffff1673ffffffffffffffffffffffffffffffffffffffff16815260200190815260200160002060c060405190810160405280878152602001858152602001868152602001848152602001428152602001602060405190810160405280600081525081525090806001815401808255809150509060018203906000526020600020906006020160009091929091909150600082015181600001556020820151816001015560408201518160020155606082015181600301556080820151816004015560a0820151816005019080519060200190610fbd929190611459565b505050505050505050565b6000803373ffffffffffffffffffffffffffffffffffffffff1673ffffffffffffffffffffffffffffffffffffffff16815260200190815260200160002060009054906101000a900460ff16151561101f57600080fd5b80600460006101000a81548160ff02191690831515021790555050565b606060028054806020026020016040519081016040528092919081815260200182805480156110c057602002820191906000526020600020905b8160009054906101000a900473ffffffffffffffffffffffffffffffffffffffff1673ffffffffffffffffffffffffffffffffffffffff1681526020019060010190808311611076575b5050505050905090565b60006005546110da85840361052b565b6110e587860361052b565b02029050949350505050565b60006020528060005260406000206000915054906101000a900460ff1681565b6000600460009054906101000a900460ff16151561112e57600080fd5b60055461113c86850361052b565b61114788870361052b565b0202905080341015151561115757fe5b600460019054906101000a900473ffffffffffffffffffffffffffffffffffffffff1673ffffffffffffffffffffffffffffffffffffffff1663bfe07da6346000346040518463ffffffff167c01000000000000000000000000000000000000000000000000000000000281526004016111d2929190611a8d565b6000604051808303818588803b1580156111eb57600080fd5b505af11580156111ff573d6000803e3d6000fd5b50505050506000600360003373ffffffffffffffffffffffffffffffffffffffff1673ffffffffffffffffffffffffffffffffffffffff168152602001908152602001600020805490501115156112bb57336002808054809190600101611266919061142d565b81548110151561127257fe5b9060005260206000200160006101000a81548173ffffffffffffffffffffffffffffffffffffffff021916908373ffffffffffffffffffffffffffffffffffffffff1602179055505b600360003373ffffffffffffffffffffffffffffffffffffffff1673ffffffffffffffffffffffffffffffffffffffff16815260200190815260200160002060c0604051908101604052808881526020018681526020018781526020018581526020014281526020018481525090806001815401808255809150509060018203906000526020600020906006020160009091929091909150600082015181600001556020820151816001015560408201518160020155606082015181600301556080820151816004015560a08201518160050190805190602001906113a1929190611459565b50505050505050505050565b828054600181600116156101000203166002900490600052602060002090601f016020900481019282601f106113ee57805160ff191683800117855561141c565b8280016001018555821561141c579182015b8281111561141b578251825591602001919060010190611400565b5b50905061142991906114d9565b5090565b8154818355818111156114545781836000526020600020918201910161145391906114d9565b5b505050565b828054600181600116156101000203166002900490600052602060002090601f016020900481019282601f1061149a57805160ff19168380011785556114c8565b828001600101855582156114c8579182015b828111156114c75782518255916020019190600101906114ac565b5b5090506114d591906114d9565b5090565b6114fb91905b808211156114f75760008160009055506001016114df565b5090565b90565b600061150a8235611d0c565b905092915050565b600061151e8235611d2c565b905092915050565b60006115328235611d38565b905092915050565b600082601f830112151561154d57600080fd5b813561156061155b82611c40565b611c13565b9150808252602083016020830185838301111561157c57600080fd5b611587838284611d4c565b50505092915050565b600061159c8235611d42565b905092915050565b6000602082840312156115b657600080fd5b60006115c4848285016114fe565b91505092915050565b600080604083850312156115e057600080fd5b60006115ee858286016114fe565b92505060206115ff85828601611590565b9150509250929050565b60006020828403121561161b57600080fd5b600061162984828501611512565b91505092915050565b60006020828403121561164457600080fd5b600061165284828501611526565b91505092915050565b6000806000806080858703121561167157600080fd5b600061167f87828801611526565b945050602061169087828801611526565b93505060406116a187828801611526565b92505060606116b287828801611526565b91505092959194509250565b600080600080600060a086880312156116d657600080fd5b60006116e488828901611526565b95505060206116f588828901611526565b945050604061170688828901611526565b935050606061171788828901611526565b9250506080611728888289016114fe565b9150509295509295909350565b600080600080600060a0868803121561174d57600080fd5b600061175b88828901611526565b955050602061176c88828901611526565b945050604061177d88828901611526565b935050606061178e88828901611526565b925050608086013567ffffffffffffffff8111156117ab57600080fd5b6117b78882890161153a565b9150509295509295909350565b600080604083850312156117d757600080fd5b600083013567ffffffffffffffff8111156117f157600080fd5b6117fd8582860161153a565b925050602061180e85828601611590565b9150509250929050565b60006020828403121561182a57600080fd5b600061183884828501611590565b91505092915050565b61184a81611ccc565b82525050565b600061185b82611c86565b80845260208401935061186d83611c6c565b60005b8281101561189f57611883868351611841565b61188c82611cb2565b9150602086019550600181019050611870565b50849250505092915050565b60006118b682611c91565b808452602084019350836020820285016118cf85611c79565b60005b848110156119085783830388526118ea8383516119da565b92506118f582611cbf565b91506020880197506001810190506118d2565b508196508694505050505092915050565b61192281611cec565b82525050565b61193181611cf8565b82525050565b600061194282611ca7565b808452611956816020860160208601611d5b565b61195f81611d8e565b602085010191505092915050565b600061197882611c9c565b80845261198c816020860160208601611d5b565b61199581611d8e565b602085010191505092915050565b6000600b82527f41737369676e204c616e640000000000000000000000000000000000000000006020830152604082019050919050565b600060c0830160008301516119f26000860182611928565b506020830151611a056020860182611928565b506040830151611a186040860182611928565b506060830151611a2b6060860182611928565b506080830151611a3e6080860182611a63565b5060a083015184820360a0860152611a56828261196d565b9150508091505092915050565b611a6c81611d02565b82525050565b6000602082019050611a876000830184611841565b92915050565b6000606082019050611aa26000830185611841565b611aaf6020830184611a63565b8181036040830152611ac0816119a3565b90509392505050565b60006020820190508181036000830152611ae38184611850565b905092915050565b60006020820190508181036000830152611b0581846118ab565b905092915050565b6000602082019050611b226000830184611919565b92915050565b600060c082019050611b3d6000830189611928565b611b4a6020830188611928565b611b576040830187611928565b611b646060830186611928565b611b716080830185611a63565b81810360a0830152611b83818461196d565b9050979650505050505050565b600060c082019050611ba56000830189611928565b611bb26020830188611928565b611bbf6040830187611928565b611bcc6060830186611928565b611bd96080830185611a63565b81810360a0830152611beb8184611937565b9050979650505050505050565b6000602082019050611c0d6000830184611a63565b92915050565b6000604051905081810181811067ffffffffffffffff82111715611c3657600080fd5b8060405250919050565b600067ffffffffffffffff821115611c5757600080fd5b601f19601f8301169050602081019050919050565b6000602082019050919050565b6000602082019050919050565b600081519050919050565b600081519050919050565b600081519050919050565b600081519050919050565b6000602082019050919050565b6000602082019050919050565b600073ffffffffffffffffffffffffffffffffffffffff82169050919050565b60008115159050919050565b6000819050919050565b6000819050919050565b600073ffffffffffffffffffffffffffffffffffffffff82169050919050565b60008115159050919050565b6000819050919050565b6000819050919050565b82818337600083830152505050565b60005b83811015611d79578082015181840152602081019050611d5e565b83811115611d88576000848401525b50505050565b6000601f19601f83011690509190505600a265627a7a7230582095d0989919edf9beeb2bca8af73c15158ab620eaaf6a90cc0f4b130c5c5ca2086c6578706572696d656e74616cf50037",
  "source": "pragma solidity ^0.4.25;\npragma experimental ABIEncoderV2;\n\nimport 'zeppelin-solidity/contracts/math/SafeMath.sol';\nimport \"./Finance.sol\";\n\n/**\n * @title Utopia\n * @author Reza Bakhshandeh <reza[dot]bakhshandeh[at]gmail[dot]com>\n */\ncontract Utopia{\n    using SafeMath for uint256;\n\n    struct Land{\n        int256 x1;\n        int256 x2;\n        int256 y1;\n        int256 y2;\n        uint256 time;\n        string hash;\n    }\n\n    // admins\n    mapping(address => bool) public adminsMap;\n    address[] public admins;\n\n    address[] public owners;\n    mapping(address => Land[]) public lands;\n\n    bool public allowPublicAssign = true;\n\n    address public fundsWallet = 0x38e41787d3F428Fad17CfD5470C4cFC4c0Ee3738;\n\n    uint256 public unitLandPrice = 0.0001 ether;\n\n    constructor(){\n        admins[admins.length++] = msg.sender;\n        adminsMap[msg.sender] = true;\n    }\n\n    modifier isPublic(){\n        require(allowPublicAssign);\n        _;\n    }\n\n    modifier isAdmin(){\n        require(adminsMap[msg.sender]);\n        _;\n    }\n\n    function getOwners() view public returns (address[]) {\n        return owners;\n    }\n\n    \n    function getLands(address owner) view public returns (Land[]) {\n        return lands[owner];\n    }\n\n    function getLand(address owner, uint256 index) \n    view public returns (\n        int256 x1,\n        int256 y1,\n        int256 x2,\n        int256 y2,\n        uint256 time, string hash) {\n        if(lands[owner].length <= index){\n            return;\n        }\n        x1 = lands[owner][index].x1;\n        x2 = lands[owner][index].x2;\n        y1 = lands[owner][index].y1;\n        y2 = lands[owner][index].y2;\n        time = lands[owner][index].time;\n        hash = lands[owner][index].hash;\n    }\n\n\n    function assignLand(int256 x1, \n        int256 y1, int256 x2, int256 y2, string hash)\n                isPublic public payable{\n\n        uint256 cost = abs(x2-x1) * abs(y2-y1) * unitLandPrice;\n        assert(msg.value >= cost);\n\n        Finance(fundsWallet).deposit.value(msg.value)(address(0), msg.value, \"Assign Land\");\n\n        if(!(lands[msg.sender].length > 0)){\n            owners[owners.length++] = msg.sender;\n        }\n        lands[msg.sender].push(Land(\n            x1,\n            x2,\n            y1,\n            y2,\n            now,\n            hash\n        ));\n    }\n\n    function adminAssignLand(int256 x1, \n        int256 y1, int256 x2, int256 y2, address addr) isAdmin{\n        if(!(lands[addr].length > 0)){\n            owners[owners.length++] = addr;\n        }\n\n        lands[addr].push(Land(\n            x1,\n            x2,\n            y1,\n            y2,\n            now,\n            \"\"\n        ));\n    }\n\n    function adminSetIsPublic(bool val) isAdmin{\n        allowPublicAssign = val;\n    }\n\n    function adminSetUnitLandPrice(uint256 price) isAdmin{\n        unitLandPrice = price;\n    }\n\n    function addAdmin(address addr) isAdmin{\n        assert(addr != address(0));\n        admins[admins.length++] = addr;\n        adminsMap[addr] = true;\n    }\n\n    function updateLand(string hash, uint256 index) returns (bool){\n        if(lands[msg.sender].length <= index){\n            return false;\n        }\n        lands[msg.sender][index].hash = hash;\n        return true;\n    }\n\n    function landPrice(int256 x1, \n        int256 y1, int256 x2, int256 y2)\n                view public returns(uint256){\n        return abs(x2-x1) * abs(y2-y1) * unitLandPrice;\n    }\n\n    function abs(int256 x) view public returns (uint256) {\n        return uint256(x > 0 ? x : -1*x);\n    }\n}\n",
  "sourcePath": "/home/projects/projects/utopia_smart_contracts/game/contracts/Utopia.sol",
  "compiler": {
    "name": "solc",
    "version": "0.4.25+commit.59dbf8f1.Emscripten.clang"
  },
  "schemaVersion": "2.0.2",
  "updatedAt": "2020-06-12T00:15:57.414Z"
}