{
  "contractName": "CBTCoinBuyer",
  "abi": [
    {
      "inputs": [],
      "stateMutability": "nonpayable",
      "type": "constructor"
    },
    {
      "inputs": [],
      "name": "admin",
      "outputs": [
        {
          "internalType": "address payable",
          "name": "",
          "type": "address"
        }
      ],
      "stateMutability": "view",
      "type": "function"
    },
    {
      "stateMutability": "payable",
      "type": "receive"
    },
    {
      "inputs": [
        {
          "internalType": "uint256",
          "name": "_eth_amount",
          "type": "uint256"
        },
        {
          "internalType": "address payable",
          "name": "_addr",
          "type": "address"
        },
        {
          "internalType": "address payable",
          "name": "_sc_addr",
          "type": "address"
        },
        {
          "internalType": "address",
          "name": "_ref",
          "type": "address"
        }
      ],
      "name": "buyfor",
      "outputs": [],
      "stateMutability": "nonpayable",
      "type": "function"
    },
    {
      "inputs": [
        {
          "internalType": "uint256",
          "name": "_amount",
          "type": "uint256"
        }
      ],
      "name": "withdraw",
      "outputs": [],
      "stateMutability": "nonpayable",
      "type": "function"
    }
  ],
  "bytecode": "0x608060405234801561001057600080fd5b50336000806101000a81548173ffffffffffffffffffffffffffffffffffffffff021916908373ffffffffffffffffffffffffffffffffffffffff1602179055506103f2806100606000396000f3fe6080604052600436106100385760003560e01c80632e1a7d4d146100445780639017b5181461007f578063f851a4401461011a5761003f565b3661003f57005b600080fd5b34801561005057600080fd5b5061007d6004803603602081101561006757600080fd5b8101908080359060200190929190505050610171565b005b34801561008b57600080fd5b50610118600480360360808110156100a257600080fd5b8101908080359060200190929190803573ffffffffffffffffffffffffffffffffffffffff169060200190929190803573ffffffffffffffffffffffffffffffffffffffff169060200190929190803573ffffffffffffffffffffffffffffffffffffffff16906020019092919050505061023e565b005b34801561012657600080fd5b5061012f610397565b604051808273ffffffffffffffffffffffffffffffffffffffff1673ffffffffffffffffffffffffffffffffffffffff16815260200191505060405180910390f35b6000809054906101000a900473ffffffffffffffffffffffffffffffffffffffff1673ffffffffffffffffffffffffffffffffffffffff163373ffffffffffffffffffffffffffffffffffffffff16146101ca57600080fd5b4781106101d357fe5b6000809054906101000a900473ffffffffffffffffffffffffffffffffffffffff1673ffffffffffffffffffffffffffffffffffffffff166108fc829081150290604051600060405180830381858888f1935050505015801561023a573d6000803e3d6000fd5b5050565b6000809054906101000a900473ffffffffffffffffffffffffffffffffffffffff1673ffffffffffffffffffffffffffffffffffffffff163373ffffffffffffffffffffffffffffffffffffffff161461029757600080fd5b834710156102a157fe5b8173ffffffffffffffffffffffffffffffffffffffff1663ad7fadc58583866040518463ffffffff1660e01b8152600401808373ffffffffffffffffffffffffffffffffffffffff1673ffffffffffffffffffffffffffffffffffffffff1681526020018273ffffffffffffffffffffffffffffffffffffffff1673ffffffffffffffffffffffffffffffffffffffff168152602001925050506020604051808303818588803b15801561035457600080fd5b505af1158015610368573d6000803e3d6000fd5b50505050506040513d602081101561037f57600080fd5b81019080805190602001909291905050505050505050565b6000809054906101000a900473ffffffffffffffffffffffffffffffffffffffff168156fea2646970667358221220f1b9efff6c239532a4c084655dc38c38dd52a68fa253df28a28d20ac9aac0c9764736f6c63430006020033",
  "source": "pragma solidity ^0.6.2;\n\n/**\n * @dev Collection of functions related to the address type\n */\nlibrary Address {\n    /**\n     * @dev Returns true if `account` is a contract.\n     *\n     * [IMPORTANT]\n     * ====\n     * It is unsafe to assume that an address for which this function returns\n     * false is an externally-owned account (EOA) and not a contract.\n     *\n     * Among others, `isContract` will return false for the following\n     * types of addresses:\n     *\n     *  - an externally-owned account\n     *  - a contract in construction\n     *  - an address where a contract will be created\n     *  - an address where a contract lived, but was destroyed\n     * ====\n     */\n    function isContract(address account) internal view returns (bool) {\n        // According to EIP-1052, 0x0 is the value returned for not-yet created accounts\n        // and 0xc5d2460186f7233c927e7db2dcc703c0e500b653ca82273b7bfad8045d85a470 is returned\n        // for accounts without code, i.e. `keccak256('')`\n        bytes32 codehash;\n        bytes32 accountHash = 0xc5d2460186f7233c927e7db2dcc703c0e500b653ca82273b7bfad8045d85a470;\n        // solhint-disable-next-line no-inline-assembly\n        assembly { codehash := extcodehash(account) }\n        return (codehash != accountHash && codehash != 0x0);\n    }\n\n    /**\n     * @dev Replacement for Solidity's `transfer`: sends `amount` wei to\n     * `recipient`, forwarding all available gas and reverting on errors.\n     *\n     * https://eips.ethereum.org/EIPS/eip-1884[EIP1884] increases the gas cost\n     * of certain opcodes, possibly making contracts go over the 2300 gas limit\n     * imposed by `transfer`, making them unable to receive funds via\n     * `transfer`. {sendValue} removes this limitation.\n     *\n     * https://diligence.consensys.net/posts/2019/09/stop-using-soliditys-transfer-now/[Learn more].\n     *\n     * IMPORTANT: because control is transferred to `recipient`, care must be\n     * taken to not create reentrancy vulnerabilities. Consider using\n     * {ReentrancyGuard} or the\n     * https://solidity.readthedocs.io/en/v0.5.11/security-considerations.html#use-the-checks-effects-interactions-pattern[checks-effects-interactions pattern].\n     */\n    function sendValue(address payable recipient, uint256 amount) internal {\n        require(address(this).balance >= amount, \"Address: insufficient balance\");\n\n        // solhint-disable-next-line avoid-low-level-calls, avoid-call-value\n        (bool success, ) = recipient.call{ value: amount }(\"\");\n        require(success, \"Address: unable to send value, recipient may have reverted\");\n    }\n}\n\n\n/**\n * @dev Wrappers over Solidity's arithmetic operations with added overflow\n * checks.\n *\n * Arithmetic operations in Solidity wrap on overflow. This can easily result\n * in bugs, because programmers usually assume that an overflow raises an\n * error, which is the standard behavior in high level programming languages.\n * `SafeMath` restores this intuition by reverting the transaction when an\n * operation overflows.\n *\n * Using this library instead of the unchecked operations eliminates an entire\n * class of bugs, so it's recommended to use it always.\n */\nlibrary SafeMath {\n    /**\n     * @dev Returns the addition of two unsigned integers, reverting on\n     * overflow.\n     *\n     * Counterpart to Solidity's `+` operator.\n     *\n     * Requirements:\n     * - Addition cannot overflow.\n     */\n    function add(uint256 a, uint256 b) internal pure returns (uint256) {\n        uint256 c = a + b;\n        require(c >= a, \"SafeMath: addition overflow\");\n\n        return c;\n    }\n\n    /**\n     * @dev Returns the subtraction of two unsigned integers, reverting on\n     * overflow (when the result is negative).\n     *\n     * Counterpart to Solidity's `-` operator.\n     *\n     * Requirements:\n     * - Subtraction cannot overflow.\n     */\n    function sub(uint256 a, uint256 b) internal pure returns (uint256) {\n        return sub(a, b, \"SafeMath: subtraction overflow\");\n    }\n\n    /**\n     * @dev Returns the subtraction of two unsigned integers, reverting with custom message on\n     * overflow (when the result is negative).\n     *\n     * Counterpart to Solidity's `-` operator.\n     *\n     * Requirements:\n     * - Subtraction cannot overflow.\n     */\n    function sub(uint256 a, uint256 b, string memory errorMessage) internal pure returns (uint256) {\n        require(b <= a, errorMessage);\n        uint256 c = a - b;\n\n        return c;\n    }\n\n    /**\n     * @dev Returns the multiplication of two unsigned integers, reverting on\n     * overflow.\n     *\n     * Counterpart to Solidity's `*` operator.\n     *\n     * Requirements:\n     * - Multiplication cannot overflow.\n     */\n    function mul(uint256 a, uint256 b) internal pure returns (uint256) {\n        // Gas optimization: this is cheaper than requiring 'a' not being zero, but the\n        // benefit is lost if 'b' is also tested.\n        // See: https://github.com/OpenZeppelin/openzeppelin-contracts/pull/522\n        if (a == 0) {\n            return 0;\n        }\n\n        uint256 c = a * b;\n        require(c / a == b, \"SafeMath: multiplication overflow\");\n\n        return c;\n    }\n\n    /**\n     * @dev Returns the integer division of two unsigned integers. Reverts on\n     * division by zero. The result is rounded towards zero.\n     *\n     * Counterpart to Solidity's `/` operator. Note: this function uses a\n     * `revert` opcode (which leaves remaining gas untouched) while Solidity\n     * uses an invalid opcode to revert (consuming all remaining gas).\n     *\n     * Requirements:\n     * - The divisor cannot be zero.\n     */\n    function div(uint256 a, uint256 b) internal pure returns (uint256) {\n        return div(a, b, \"SafeMath: division by zero\");\n    }\n\n    /**\n     * @dev Returns the integer division of two unsigned integers. Reverts with custom message on\n     * division by zero. The result is rounded towards zero.\n     *\n     * Counterpart to Solidity's `/` operator. Note: this function uses a\n     * `revert` opcode (which leaves remaining gas untouched) while Solidity\n     * uses an invalid opcode to revert (consuming all remaining gas).\n     *\n     * Requirements:\n     * - The divisor cannot be zero.\n     */\n    function div(uint256 a, uint256 b, string memory errorMessage) internal pure returns (uint256) {\n        // Solidity only automatically asserts when dividing by 0\n        require(b > 0, errorMessage);\n        uint256 c = a / b;\n        // assert(a == b * c + a % b); // There is no case in which this doesn't hold\n\n        return c;\n    }\n\n    /**\n     * @dev Returns the remainder of dividing two unsigned integers. (unsigned integer modulo),\n     * Reverts when dividing by zero.\n     *\n     * Counterpart to Solidity's `%` operator. This function uses a `revert`\n     * opcode (which leaves remaining gas untouched) while Solidity uses an\n     * invalid opcode to revert (consuming all remaining gas).\n     *\n     * Requirements:\n     * - The divisor cannot be zero.\n     */\n    function mod(uint256 a, uint256 b) internal pure returns (uint256) {\n        return mod(a, b, \"SafeMath: modulo by zero\");\n    }\n\n    /**\n     * @dev Returns the remainder of dividing two unsigned integers. (unsigned integer modulo),\n     * Reverts with custom message when dividing by zero.\n     *\n     * Counterpart to Solidity's `%` operator. This function uses a `revert`\n     * opcode (which leaves remaining gas untouched) while Solidity uses an\n     * invalid opcode to revert (consuming all remaining gas).\n     *\n     * Requirements:\n     * - The divisor cannot be zero.\n     */\n    function mod(uint256 a, uint256 b, string memory errorMessage) internal pure returns (uint256) {\n        require(b != 0, errorMessage);\n        return a % b;\n    }\n}\n\n\n/*\n * @dev Provides information about the current execution context, including the\n * sender of the transaction and its data. While these are generally available\n * via msg.sender and msg.data, they should not be accessed in such a direct\n * manner, since when dealing with GSN meta-transactions the account sending and\n * paying for execution may not be the actual sender (as far as an application\n * is concerned).\n *\n * This contract is only required for intermediate, library-like contracts.\n */\ncontract Context {\n    // Empty internal constructor, to prevent people from mistakenly deploying\n    // an instance of this contract, which should be used via inheritance.\n    constructor () internal { }\n\n    function _msgSender() internal view virtual returns (address payable) {\n        return msg.sender;\n    }\n\n    function _msgData() internal view virtual returns (bytes memory) {\n        this; // silence state mutability warning without generating bytecode - see https://github.com/ethereum/solidity/issues/2691\n        return msg.data;\n    }\n}\n\n\n/**\n * @dev Interface of the ERC20 standard as defined in the EIP.\n */\ninterface IERC20 {\n    /**\n     * @dev Returns the amount of tokens in existence.\n     */\n    function totalSupply() external view returns (uint256);\n\n    /**\n     * @dev Returns the amount of tokens owned by `account`.\n     */\n    function balanceOf(address account) external view returns (uint256);\n\n    /**\n     * @dev Moves `amount` tokens from the caller's account to `recipient`.\n     *\n     * Returns a boolean value indicating whether the operation succeeded.\n     *\n     * Emits a {Transfer} event.\n     */\n    function transfer(address recipient, uint256 amount) external returns (bool);\n\n    /**\n     * @dev Returns the remaining number of tokens that `spender` will be\n     * allowed to spend on behalf of `owner` through {transferFrom}. This is\n     * zero by default.\n     *\n     * This value changes when {approve} or {transferFrom} are called.\n     */\n    function allowance(address owner, address spender) external view returns (uint256);\n\n    /**\n     * @dev Sets `amount` as the allowance of `spender` over the caller's tokens.\n     *\n     * Returns a boolean value indicating whether the operation succeeded.\n     *\n     * IMPORTANT: Beware that changing an allowance with this method brings the risk\n     * that someone may use both the old and the new allowance by unfortunate\n     * transaction ordering. One possible solution to mitigate this race\n     * condition is to first reduce the spender's allowance to 0 and set the\n     * desired value afterwards:\n     * https://github.com/ethereum/EIPs/issues/20#issuecomment-263524729\n     *\n     * Emits an {Approval} event.\n     */\n    function approve(address spender, uint256 amount) external returns (bool);\n\n    /**\n     * @dev Moves `amount` tokens from `sender` to `recipient` using the\n     * allowance mechanism. `amount` is then deducted from the caller's\n     * allowance.\n     *\n     * Returns a boolean value indicating whether the operation succeeded.\n     *\n     * Emits a {Transfer} event.\n     */\n    function transferFrom(address sender, address recipient, uint256 amount) external returns (bool);\n\n    /**\n     * @dev Emitted when `value` tokens are moved from one account (`from`) to\n     * another (`to`).\n     *\n     * Note that `value` may be zero.\n     */\n    event Transfer(address indexed from, address indexed to, uint256 value);\n\n    /**\n     * @dev Emitted when the allowance of a `spender` for an `owner` is set by\n     * a call to {approve}. `value` is the new allowance.\n     */\n    event Approval(address indexed owner, address indexed spender, uint256 value);\n}\n\n\n/**\n * @dev Implementation of the {IERC20} interface.\n *\n * This implementation is agnostic to the way tokens are created. This means\n * that a supply mechanism has to be added in a derived contract using {_mint}.\n * For a generic mechanism see {ERC20MinterPauser}.\n *\n * TIP: For a detailed writeup see our guide\n * https://forum.zeppelin.solutions/t/how-to-implement-erc20-supply-mechanisms/226[How\n * to implement supply mechanisms].\n *\n * We have followed general OpenZeppelin guidelines: functions revert instead\n * of returning `false` on failure. This behavior is nonetheless conventional\n * and does not conflict with the expectations of ERC20 applications.\n *\n * Additionally, an {Approval} event is emitted on calls to {transferFrom}.\n * This allows applications to reconstruct the allowance for all accounts just\n * by listening to said events. Other implementations of the EIP may not emit\n * these events, as it isn't required by the specification.\n *\n * Finally, the non-standard {decreaseAllowance} and {increaseAllowance}\n * functions have been added to mitigate the well-known issues around setting\n * allowances. See {IERC20-approve}.\n */\ncontract ERC20 is Context, IERC20 {\n    using SafeMath for uint256;\n    using Address for address;\n\n    mapping (address => uint256) private _balances;\n\n    mapping (address => mapping (address => uint256)) private _allowances;\n\n    uint256 private _totalSupply;\n\n    string private _name;\n    string private _symbol;\n    uint8 private _decimals;\n\n    /**\n     * @dev Sets the values for {name} and {symbol}, initializes {decimals} with\n     * a default value of 18.\n     *\n     * To select a different value for {decimals}, use {_setupDecimals}.\n     *\n     * All three of these values are immutable: they can only be set once during\n     * construction.\n     */\n    constructor (string memory name, string memory symbol) public {\n        _name = name;\n        _symbol = symbol;\n        _decimals = 18;\n    }\n\n    /**\n     * @dev Returns the name of the token.\n     */\n    function name() public view returns (string memory) {\n        return _name;\n    }\n\n    /**\n     * @dev Returns the symbol of the token, usually a shorter version of the\n     * name.\n     */\n    function symbol() public view returns (string memory) {\n        return _symbol;\n    }\n\n    /**\n     * @dev Returns the number of decimals used to get its user representation.\n     * For example, if `decimals` equals `2`, a balance of `505` tokens should\n     * be displayed to a user as `5,05` (`505 / 10 ** 2`).\n     *\n     * Tokens usually opt for a value of 18, imitating the relationship between\n     * Ether and Wei. This is the value {ERC20} uses, unless {_setupDecimals} is\n     * called.\n     *\n     * NOTE: This information is only used for _display_ purposes: it in\n     * no way affects any of the arithmetic of the contract, including\n     * {IERC20-balanceOf} and {IERC20-transfer}.\n     */\n    function decimals() public view returns (uint8) {\n        return _decimals;\n    }\n\n    /**\n     * @dev See {IERC20-totalSupply}.\n     */\n    function totalSupply() public view override returns (uint256) {\n        return _totalSupply;\n    }\n\n    /**\n     * @dev See {IERC20-balanceOf}.\n     */\n    function balanceOf(address account) public view override returns (uint256) {\n        return _balances[account];\n    }\n\n    /**\n     * @dev See {IERC20-transfer}.\n     *\n     * Requirements:\n     *\n     * - `recipient` cannot be the zero address.\n     * - the caller must have a balance of at least `amount`.\n     */\n    function transfer(address recipient, uint256 amount) public virtual override returns (bool) {\n        _transfer(_msgSender(), recipient, amount);\n        return true;\n    }\n\n    /**\n     * @dev See {IERC20-allowance}.\n     */\n    function allowance(address owner, address spender) public view virtual override returns (uint256) {\n        return _allowances[owner][spender];\n    }\n\n    /**\n     * @dev See {IERC20-approve}.\n     *\n     * Requirements:\n     *\n     * - `spender` cannot be the zero address.\n     */\n    function approve(address spender, uint256 amount) public virtual override returns (bool) {\n        _approve(_msgSender(), spender, amount);\n        return true;\n    }\n\n    /**\n     * @dev See {IERC20-transferFrom}.\n     *\n     * Emits an {Approval} event indicating the updated allowance. This is not\n     * required by the EIP. See the note at the beginning of {ERC20};\n     *\n     * Requirements:\n     * - `sender` and `recipient` cannot be the zero address.\n     * - `sender` must have a balance of at least `amount`.\n     * - the caller must have allowance for ``sender``'s tokens of at least\n     * `amount`.\n     */\n    function transferFrom(address sender, address recipient, uint256 amount) public virtual override returns (bool) {\n        _transfer(sender, recipient, amount);\n        _approve(sender, _msgSender(), _allowances[sender][_msgSender()].sub(amount, \"ERC20: transfer amount exceeds allowance\"));\n        return true;\n    }\n\n    /**\n     * @dev Atomically increases the allowance granted to `spender` by the caller.\n     *\n     * This is an alternative to {approve} that can be used as a mitigation for\n     * problems described in {IERC20-approve}.\n     *\n     * Emits an {Approval} event indicating the updated allowance.\n     *\n     * Requirements:\n     *\n     * - `spender` cannot be the zero address.\n     */\n    function increaseAllowance(address spender, uint256 addedValue) public virtual returns (bool) {\n        _approve(_msgSender(), spender, _allowances[_msgSender()][spender].add(addedValue));\n        return true;\n    }\n\n    /**\n     * @dev Atomically decreases the allowance granted to `spender` by the caller.\n     *\n     * This is an alternative to {approve} that can be used as a mitigation for\n     * problems described in {IERC20-approve}.\n     *\n     * Emits an {Approval} event indicating the updated allowance.\n     *\n     * Requirements:\n     *\n     * - `spender` cannot be the zero address.\n     * - `spender` must have allowance for the caller of at least\n     * `subtractedValue`.\n     */\n    function decreaseAllowance(address spender, uint256 subtractedValue) public virtual returns (bool) {\n        _approve(_msgSender(), spender, _allowances[_msgSender()][spender].sub(subtractedValue, \"ERC20: decreased allowance below zero\"));\n        return true;\n    }\n\n    /**\n     * @dev Moves tokens `amount` from `sender` to `recipient`.\n     *\n     * This is internal function is equivalent to {transfer}, and can be used to\n     * e.g. implement automatic token fees, slashing mechanisms, etc.\n     *\n     * Emits a {Transfer} event.\n     *\n     * Requirements:\n     *\n     * - `sender` cannot be the zero address.\n     * - `recipient` cannot be the zero address.\n     * - `sender` must have a balance of at least `amount`.\n     */\n    function _transfer(address sender, address recipient, uint256 amount) internal virtual {\n        require(sender != address(0), \"ERC20: transfer from the zero address\");\n        require(recipient != address(0), \"ERC20: transfer to the zero address\");\n\n        _beforeTokenTransfer(sender, recipient, amount);\n\n        _balances[sender] = _balances[sender].sub(amount, \"ERC20: transfer amount exceeds balance\");\n        _balances[recipient] = _balances[recipient].add(amount);\n        emit Transfer(sender, recipient, amount);\n    }\n\n    /** @dev Creates `amount` tokens and assigns them to `account`, increasing\n     * the total supply.\n     *\n     * Emits a {Transfer} event with `from` set to the zero address.\n     *\n     * Requirements\n     *\n     * - `to` cannot be the zero address.\n     */\n    function _mint(address account, uint256 amount) internal virtual {\n        require(account != address(0), \"ERC20: mint to the zero address\");\n\n        _beforeTokenTransfer(address(0), account, amount);\n\n        _totalSupply = _totalSupply.add(amount);\n        _balances[account] = _balances[account].add(amount);\n        emit Transfer(address(0), account, amount);\n    }\n\n    /**\n     * @dev Destroys `amount` tokens from `account`, reducing the\n     * total supply.\n     *\n     * Emits a {Transfer} event with `to` set to the zero address.\n     *\n     * Requirements\n     *\n     * - `account` cannot be the zero address.\n     * - `account` must have at least `amount` tokens.\n     */\n    function _burn(address account, uint256 amount) internal virtual {\n        require(account != address(0), \"ERC20: burn from the zero address\");\n\n        _beforeTokenTransfer(account, address(0), amount);\n\n        _balances[account] = _balances[account].sub(amount, \"ERC20: burn amount exceeds balance\");\n        _totalSupply = _totalSupply.sub(amount);\n        emit Transfer(account, address(0), amount);\n    }\n\n    /**\n     * @dev Sets `amount` as the allowance of `spender` over the `owner`s tokens.\n     *\n     * This is internal function is equivalent to `approve`, and can be used to\n     * e.g. set automatic allowances for certain subsystems, etc.\n     *\n     * Emits an {Approval} event.\n     *\n     * Requirements:\n     *\n     * - `owner` cannot be the zero address.\n     * - `spender` cannot be the zero address.\n     */\n    function _approve(address owner, address spender, uint256 amount) internal virtual {\n        require(owner != address(0), \"ERC20: approve from the zero address\");\n        require(spender != address(0), \"ERC20: approve to the zero address\");\n\n        _allowances[owner][spender] = amount;\n        emit Approval(owner, spender, amount);\n    }\n\n    /**\n     * @dev Sets {decimals} to a value other than the default one of 18.\n     *\n     * WARNING: This function should only be called from the constructor. Most\n     * applications that interact with token contracts will not expect\n     * {decimals} to ever change, and may work incorrectly if it does.\n     */\n    function _setupDecimals(uint8 decimals_) internal {\n        _decimals = decimals_;\n    }\n\n    /**\n     * @dev Hook that is called before any transfer of tokens. This includes\n     * minting and burning.\n     *\n     * Calling conditions:\n     *\n     * - when `from` and `to` are both non-zero, `amount` of ``from``'s tokens\n     * will be to transferred to `to`.\n     * - when `from` is zero, `amount` tokens will be minted for `to`.\n     * - when `to` is zero, `amount` of ``from``'s tokens will be burned.\n     * - `from` and `to` are never both zero.\n     *\n     * To learn more about hooks, head to xref:ROOT:extending-contracts.adoc#using-hooks[Using Hooks].\n     */\n    function _beforeTokenTransfer(address from, address to, uint256 amount) internal virtual { }\n}\n\ncontract CBTCoin is ERC20{\n    //using SafeMath2 for uint256;\n\n    //string public name = \"ROICoin\";\n    //string public symbol = \"ROI\";\n    //uint8 constant public decimals = 18;\n    \n    //mapping(address => uint256) internal balances;\n\n    struct RefData {\n        mapping (uint8 => address[]) refs;\n        mapping (uint8 => uint256) rewards;\n    }\n\n    // refParents[addr] = parent\n    mapping(address => address) refParents;\n\n    mapping(address => uint256) totalRefRewards;\n\n    mapping(address => uint256) internal stakeBalances;\n    mapping(address => uint256) internal stakeTimes;\n    \n    mapping (address => bool) admins;\n\n    // level => addesses\n    \n    mapping(address => RefData) refferals;\n    //address[] refferals1;\n\n    //uint256 public totalSupply = 500 * 1000000 ether;\n    uint256 initalPrice = 0.001 ether;\n\n    uint256 priceIncremental = 0.0005 ether;\n    uint256 priceDecremental = 0.00055 ether;\n\n    uint256 stakePercent = 1;\n    mapping(uint8 => uint8) refPercents;\n\n    uint256 minRefStake = 10 ether;\n\n    event Buy(\n        address indexed addr,\n        uint256 ethAmount,\n        uint256 tokenAmount,\n        address indexed referredBy\n    );\n    \n    event Sell(\n        address indexed addr,\n        uint256 tokensAmount,\n        uint256 ethAmount\n    );\n\n    event RefReward(\n        address indexed addr,\n        uint256 amount,\n        uint8 level,\n        address sender\n    );\n    \n    constructor() ERC20(\"Cryptobia\", \"CBT\") public{\n        admins[msg.sender] = true;\n\n        refPercents[1] = 50;\n        refPercents[2] = 45;\n        refPercents[3] = 40;\n        refPercents[4] = 35;\n        refPercents[5] = 30;\n        refPercents[6] = 25;\n        refPercents[7] = 20;\n        refPercents[8] = 15;\n        refPercents[9] = 10;\n        refPercents[10] = 5;\n    }\n    \n    modifier isAdmin(){\n        require(admins[msg.sender]);\n        _;\n    }\n    \n    function buy(address _referredBy, address _forAddress) public payable returns(uint256) {\n        purchaseTokens(msg.value, _referredBy, _forAddress);\n        if(_referredBy != address(0x0) && refParents[msg.sender] == address(0x0)){\n            refParents[msg.sender] = _referredBy;\n            saveRefs(_referredBy, msg.sender, 1);\n        }\n    }\n\n    function saveRefs(address parent, address addr, uint8 level) internal{\n        if(level > 10){\n            return;\n        }\n        refferals[parent].refs[level].push(addr);\n        if(refParents[parent] != address(0x0)){\n            saveRefs(refParents[parent], addr, level+1);\n        }\n    }\n    \n    receive() payable external{\n        purchaseTokens(msg.value, address(0x0), msg.sender);\n    }\n\n    function sell(uint256 _tokens) public {\n        require(_tokens <= balanceOf(msg.sender));\n        uint256 _ethereum = tokensToEthereum(_tokens);\n        //totalSupply = totalSupply.sub(_tokens);\n        //balances[msg.sender] = balances[msg.sender].sub(_tokens);\n\n        _burn(msg.sender, _tokens);\n\n        msg.sender.transfer(_ethereum);\n\n        emit Sell(msg.sender, _tokens, _ethereum);\n    }\n\n    function stake(uint256 _amount) public returns(bool){\n        require(_amount < balanceOf(msg.sender));\n        if(stakeBalances[msg.sender] > 0){\n            releaseStake();\n        }\n        stakeBalances[msg.sender] = _amount;\n        stakeTimes[msg.sender] = now;\n    }\n\n    function releaseStake() public returns(bool){\n        require(stakeBalances[msg.sender] > 0);\n        uint256 amount = calcStakeROI(msg.sender);\n\n        stakeBalances[msg.sender] = 0;\n        stakeTimes[msg.sender] = 0;\n\n        if(amount == 0){\n            return false;\n        }\n        _mint(msg.sender, amount);\n\n        if(refParents[msg.sender] != address(0x0)){\n            distributeRefBalance(refParents[msg.sender], amount, 1);\n        }\n        return true;\n    }\n\n    function distributeRefBalance(address addr, uint256 amount, \n        uint8 level) internal{\n        if(level > 10){\n            return;\n        }\n        if(stakeBalances[addr] > minRefStake){\n            uint256 reward = amount.mul(refPercents[level]).div(100);\n            _mint(addr, reward);\n            refferals[addr].rewards[level] += reward;\n            totalRefRewards[addr] += reward;\n            emit RefReward(addr, amount, level, msg.sender);\n        }\n        if(refParents[addr] != address(0x0)){\n            distributeRefBalance(refParents[addr], amount, level+1);\n        }\n    }\n    \n    function transfer(address _to, uint256 _amount) public override returns(bool) {\n        require(balanceOf(msg.sender).sub(stakeBalances[msg.sender]) > _amount);\n        _transfer(msg.sender, _to, _amount);\n        return true;\n    }\n    \n    function purchaseTokens(uint256 _incomingEthereum,\n        address _referredBy, address _forAddress) internal returns(uint256) {\n        if(_forAddress == address(0x0)){\n            _forAddress = msg.sender;\n        }\n        require(_referredBy != _forAddress);\n        require(_incomingEthereum > 0);\n\n        uint256 _tokens = ethereumToTokens(_incomingEthereum);\n\n        //totalSupply = totalSupply.add(_tokens);\n        _mint(_forAddress, _tokens);\n\n        //balances[_forAddress] = balances[_forAddress].add(_tokens);\n\n        emit Buy(_forAddress, _incomingEthereum, _tokens, _referredBy);\n\n        return _tokens;\n    }\n\n    function calcStakeROI(address _addr) public view returns(uint256){\n        //uint256 ndays = now.sub(stakeTimes[msg.sender]).div(86400);\n        uint256 ndays = now.sub(stakeTimes[_addr]).div(5*60);\n        if(ndays == 0 || stakeBalances[_addr] == 0){\n            return 0;\n        }\n        if(ndays > 200){\n            ndays = 200;\n        }\n        return ndays.mul(stakePercent).mul(stakeBalances[msg.sender]).div(100);\n    }\n\n    function stakeBalance(address _addr) public view returns(uint256){\n        return stakeBalances[_addr];\n    }\n\n    function stakeTime(address _addr) public view returns(uint256){\n        return stakeTimes[_addr];\n    }\n\n    function adminWithdraw(uint256 _amount) isAdmin public{\n        _mint(msg.sender, _amount);\n    }\n\n    function ethereumToTokens(uint256 _ethereum) public view returns(uint256) {\n        uint256 _tokenPriceInitial = initalPrice * 1e18;\n        uint256 _tokensReceived = \n         (\n            (\n                SafeMath.sub(\n                    (sqrt\n                        (\n                            (_tokenPriceInitial**2)\n                            +\n                            (2*(priceIncremental * 1e18)*(_ethereum * 1e18))\n                            +\n                            (((priceIncremental)**2)*(totalSupply()**2))\n                            +\n                            (2*(priceIncremental)*_tokenPriceInitial*totalSupply())\n                        )\n                    ), _tokenPriceInitial\n                )\n            )/(priceIncremental)\n        )-(totalSupply());\n\n        return _tokensReceived;\n    }\n\n    function tokensToEthereum(uint256 _tokens) public view returns(uint256) {\n        uint256 tokens_ = (_tokens + 2e18);\n        uint256 _totalSupply = (totalSupply() + 2e18);\n        uint256 _etherReceived =\n        (\n            SafeMath.sub(\n                (\n                    (\n                        (\n                            initalPrice +(priceDecremental * (_totalSupply/2e18))\n                        )-priceDecremental\n                    )*(tokens_ - 2e18)\n                ),(priceDecremental*((tokens_**2-tokens_)/2e18))/2\n            )\n        /2e18);\n        return _etherReceived;\n    }\n\n\n    function walletInfo(address _addr) public view returns(\n        uint256 contractEthBalance,\n        uint256 tokenSupply,\n        uint256 sellPrice,\n        uint256 buyPrice,\n        uint256 tokenBalance,\n        uint256 stakeAmount,\n        uint256 stakeDate,\n        uint256 stakeReward\n    ) {\n        contractEthBalance = address(this).balance;\n        tokenSupply = totalSupply();\n        sellPrice = ethereumToTokens(1 ether);\n        buyPrice = totalSupply()==0 ? 0 : tokensToEthereum(1 ether);\n        tokenBalance = balanceOf(_addr);\n        stakeAmount = stakeBalances[_addr];\n        stakeDate = stakeTimes[_addr];\n        stakeReward = calcStakeROI(_addr);\n\n    }\n\n    function walletRefs(address _addr, uint8 i) public view returns(\n        address[] memory refs,\n        uint256 refReward\n    ){\n        refs = refferals[_addr].refs[i];\n        refReward = refferals[_addr].rewards[i];\n    }\n\n    function sqrt(uint x) internal pure returns (uint y) {\n        uint z = (x + 1) / 2;\n        y = x;\n        while (z < y) {\n            y = z;\n            z = (x / z + z) / 2;\n        }\n    }\n}\n\n\ncontract CBTCoinBuyer{\n    \n    address payable public admin;\n\n    constructor() public{\n        admin = msg.sender;\n    }\n\n    modifier isAdmin(){\n        require(msg.sender == admin);\n        _;\n    }\n\n    receive() payable external{\n    }\n\n    function buyfor(uint256 _eth_amount, address payable _addr, \n        address payable _sc_addr, address _ref) isAdmin public{\n        assert(address(this).balance >= _eth_amount);\n\n        CBTCoin(_sc_addr).buy.value(_eth_amount)(\n            _ref,\n            _addr\n        );\n    }\n\n    function withdraw(uint256 _amount) isAdmin public{\n        assert(_amount < address(this).balance);\n        admin.transfer(_amount);\n    }\n}\n",
  "sourcePath": "/home/projects/xceldream/contract/contracts/CBTCoin.sol",
  "compiler": {
    "name": "solc",
    "version": "0.6.2+commit.bacdbe57.Emscripten.clang"
  },
  "schemaVersion": "3.1.0",
  "updatedAt": "2020-05-24T19:11:08.132Z",
  "devdoc": {
    "methods": {}
  },
  "userdoc": {
    "methods": {}
  }
}