{
  "contractName": "Utopia",
  "abi": [
    {
      "constant": true,
      "inputs": [
        {
          "name": "",
          "type": "uint256"
        }
      ],
      "name": "owners",
      "outputs": [
        {
          "name": "",
          "type": "address"
        }
      ],
      "payable": false,
      "stateMutability": "view",
      "type": "function"
    },
    {
      "constant": true,
      "inputs": [],
      "name": "allowPublicAssign",
      "outputs": [
        {
          "name": "",
          "type": "bool"
        }
      ],
      "payable": false,
      "stateMutability": "view",
      "type": "function"
    },
    {
      "constant": true,
      "inputs": [
        {
          "name": "",
          "type": "uint256"
        }
      ],
      "name": "admins",
      "outputs": [
        {
          "name": "",
          "type": "address"
        }
      ],
      "payable": false,
      "stateMutability": "view",
      "type": "function"
    },
    {
      "constant": true,
      "inputs": [
        {
          "name": "",
          "type": "address"
        },
        {
          "name": "",
          "type": "uint256"
        }
      ],
      "name": "lands",
      "outputs": [
        {
          "name": "x1",
          "type": "int256"
        },
        {
          "name": "x2",
          "type": "int256"
        },
        {
          "name": "y1",
          "type": "int256"
        },
        {
          "name": "y2",
          "type": "int256"
        },
        {
          "name": "time",
          "type": "uint256"
        },
        {
          "name": "hash",
          "type": "string"
        }
      ],
      "payable": false,
      "stateMutability": "view",
      "type": "function"
    },
    {
      "constant": true,
      "inputs": [
        {
          "name": "",
          "type": "address"
        }
      ],
      "name": "adminsMap",
      "outputs": [
        {
          "name": "",
          "type": "bool"
        }
      ],
      "payable": false,
      "stateMutability": "view",
      "type": "function"
    },
    {
      "inputs": [],
      "payable": false,
      "stateMutability": "nonpayable",
      "type": "constructor"
    },
    {
      "constant": true,
      "inputs": [],
      "name": "getOwners",
      "outputs": [
        {
          "name": "",
          "type": "address[]"
        }
      ],
      "payable": false,
      "stateMutability": "view",
      "type": "function"
    },
    {
      "constant": true,
      "inputs": [
        {
          "name": "owner",
          "type": "address"
        }
      ],
      "name": "getLands",
      "outputs": [
        {
          "components": [
            {
              "name": "x1",
              "type": "int256"
            },
            {
              "name": "x2",
              "type": "int256"
            },
            {
              "name": "y1",
              "type": "int256"
            },
            {
              "name": "y2",
              "type": "int256"
            },
            {
              "name": "time",
              "type": "uint256"
            },
            {
              "name": "hash",
              "type": "string"
            }
          ],
          "name": "",
          "type": "tuple[]"
        }
      ],
      "payable": false,
      "stateMutability": "view",
      "type": "function"
    },
    {
      "constant": true,
      "inputs": [
        {
          "name": "owner",
          "type": "address"
        },
        {
          "name": "index",
          "type": "uint256"
        }
      ],
      "name": "getLand",
      "outputs": [
        {
          "name": "x1",
          "type": "int256"
        },
        {
          "name": "y1",
          "type": "int256"
        },
        {
          "name": "x2",
          "type": "int256"
        },
        {
          "name": "y2",
          "type": "int256"
        },
        {
          "name": "time",
          "type": "uint256"
        },
        {
          "name": "hash",
          "type": "string"
        }
      ],
      "payable": false,
      "stateMutability": "view",
      "type": "function"
    },
    {
      "constant": false,
      "inputs": [
        {
          "name": "x1",
          "type": "int256"
        },
        {
          "name": "y1",
          "type": "int256"
        },
        {
          "name": "x2",
          "type": "int256"
        },
        {
          "name": "y2",
          "type": "int256"
        },
        {
          "name": "hash",
          "type": "string"
        }
      ],
      "name": "assignLand",
      "outputs": [],
      "payable": false,
      "stateMutability": "nonpayable",
      "type": "function"
    },
    {
      "constant": false,
      "inputs": [
        {
          "name": "x1",
          "type": "int256"
        },
        {
          "name": "y1",
          "type": "int256"
        },
        {
          "name": "x2",
          "type": "int256"
        },
        {
          "name": "y2",
          "type": "int256"
        },
        {
          "name": "addr",
          "type": "address"
        }
      ],
      "name": "adminAssignLand",
      "outputs": [],
      "payable": false,
      "stateMutability": "nonpayable",
      "type": "function"
    },
    {
      "constant": false,
      "inputs": [
        {
          "name": "val",
          "type": "bool"
        }
      ],
      "name": "adminSetIsPublic",
      "outputs": [],
      "payable": false,
      "stateMutability": "nonpayable",
      "type": "function"
    },
    {
      "constant": false,
      "inputs": [
        {
          "name": "addr",
          "type": "address"
        }
      ],
      "name": "addAdmin",
      "outputs": [],
      "payable": false,
      "stateMutability": "nonpayable",
      "type": "function"
    },
    {
      "constant": false,
      "inputs": [
        {
          "name": "hash",
          "type": "string"
        },
        {
          "name": "index",
          "type": "uint256"
        }
      ],
      "name": "updateLand",
      "outputs": [
        {
          "name": "",
          "type": "bool"
        }
      ],
      "payable": false,
      "stateMutability": "nonpayable",
      "type": "function"
    }
  ],
  "bytecode": "0x60806040526001600460006101000a81548160ff0219169083151502179055503480156200002c57600080fd5b50336001808054809190600101620000459190620000f7565b8154811015156200005257fe5b9060005260206000200160006101000a81548173ffffffffffffffffffffffffffffffffffffffff021916908373ffffffffffffffffffffffffffffffffffffffff16021790555060016000803373ffffffffffffffffffffffffffffffffffffffff1673ffffffffffffffffffffffffffffffffffffffff16815260200190815260200160002060006101000a81548160ff0219169083151502179055506200014e565b815481835581811115620001215781836000526020600020918201910162000120919062000126565b5b505050565b6200014b91905b80821115620001475760008160009055506001016200012d565b5090565b90565b6119d5806200015e6000396000f3006080604052600436106100c5576000357c0100000000000000000000000000000000000000000000000000000000900463ffffffff168063025e7c27146100ca5780630824c9121461010757806314bfd6d014610132578063254c44f51461016f57806365742555146101ac5780636fc58f10146101ee578063704802751461022b578063756efcf71461025457806379eca727146102965780638ee344cc146102bf578063a0e67e2b146102e8578063e8542b0714610313578063ef323a9d14610350575b600080fd5b3480156100d657600080fd5b506100f160048036036100ec91908101906114a2565b610379565b6040516100fe91906116c5565b60405180910390f35b34801561011357600080fd5b5061011c6103b7565b6040516101299190611724565b60405180910390f35b34801561013e57600080fd5b50610159600480360361015491908101906114a2565b6103ca565b60405161016691906116c5565b60405180910390f35b34801561017b57600080fd5b50610196600480360361019191908101906112ba565b610408565b6040516101a39190611702565b60405180910390f35b3480156101b857600080fd5b506101d360048036036101ce91908101906112e3565b61057b565b6040516101e5969594939291906117a7565b60405180910390f35b3480156101fa57600080fd5b506102156004803603610210919081019061144e565b6108b8565b6040516102229190611724565b60405180910390f35b34801561023757600080fd5b50610252600480360361024d91908101906112ba565b61098b565b005b34801561026057600080fd5b5061027b600480360361027691908101906112e3565b610adf565b60405161028d9695949392919061173f565b60405180910390f35b3480156102a257600080fd5b506102bd60048036036102b89190810190611348565b610bcf565b005b3480156102cb57600080fd5b506102e660048036036102e1919081019061131f565b610dde565b005b3480156102f457600080fd5b506102fd610e52565b60405161030a91906116e0565b60405180910390f35b34801561031f57600080fd5b5061033a600480360361033591908101906112ba565b610ee0565b6040516103479190611724565b60405180910390f35b34801561035c57600080fd5b50610377600480360361037291908101906113bf565b610f00565b005b60028181548110151561038857fe5b906000526020600020016000915054906101000a900473ffffffffffffffffffffffffffffffffffffffff1681565b600460009054906101000a900460ff1681565b6001818154811015156103d957fe5b906000526020600020016000915054906101000a900473ffffffffffffffffffffffffffffffffffffffff1681565b6060600360008373ffffffffffffffffffffffffffffffffffffffff1673ffffffffffffffffffffffffffffffffffffffff168152602001908152602001600020805480602002602001604051908101604052809291908181526020016000905b82821015610570578382906000526020600020906006020160c060405190810160405290816000820154815260200160018201548152602001600282015481526020016003820154815260200160048201548152602001600582018054600181600116156101000203166002900480601f0160208091040260200160405190810160405280929190818152602001828054600181600116156101000203166002900480156105585780601f1061052d57610100808354040283529160200191610558565b820191906000526020600020905b81548152906001019060200180831161053b57829003601f168201915b50505050508152505081526020019060010190610469565b505050509050919050565b6000806000806000606086600360008a73ffffffffffffffffffffffffffffffffffffffff1673ffffffffffffffffffffffffffffffffffffffff168152602001908152602001600020805490501115156105d5576108ae565b600360008973ffffffffffffffffffffffffffffffffffffffff1673ffffffffffffffffffffffffffffffffffffffff1681526020019081526020016000208781548110151561062157fe5b9060005260206000209060060201600001549550600360008973ffffffffffffffffffffffffffffffffffffffff1673ffffffffffffffffffffffffffffffffffffffff1681526020019081526020016000208781548110151561068157fe5b9060005260206000209060060201600101549350600360008973ffffffffffffffffffffffffffffffffffffffff1673ffffffffffffffffffffffffffffffffffffffff168152602001908152602001600020878154811015156106e157fe5b9060005260206000209060060201600201549450600360008973ffffffffffffffffffffffffffffffffffffffff1673ffffffffffffffffffffffffffffffffffffffff1681526020019081526020016000208781548110151561074157fe5b9060005260206000209060060201600301549250600360008973ffffffffffffffffffffffffffffffffffffffff1673ffffffffffffffffffffffffffffffffffffffff168152602001908152602001600020878154811015156107a157fe5b9060005260206000209060060201600401549150600360008973ffffffffffffffffffffffffffffffffffffffff1673ffffffffffffffffffffffffffffffffffffffff1681526020019081526020016000208781548110151561080157fe5b90600052602060002090600602016005018054600181600116156101000203166002900480601f0160208091040260200160405190810160405280929190818152602001828054600181600116156101000203166002900480156108a65780601f1061087b576101008083540402835291602001916108a6565b820191906000526020600020905b81548152906001019060200180831161088957829003601f168201915b505050505090505b9295509295509295565b600081600360003373ffffffffffffffffffffffffffffffffffffffff1673ffffffffffffffffffffffffffffffffffffffff1681526020019081526020016000208054905011151561090e5760009050610985565b82600360003373ffffffffffffffffffffffffffffffffffffffff1673ffffffffffffffffffffffffffffffffffffffff1681526020019081526020016000208381548110151561095b57fe5b9060005260206000209060060201600501908051906020019061097f9291906110c3565b50600190505b92915050565b6000803373ffffffffffffffffffffffffffffffffffffffff1673ffffffffffffffffffffffffffffffffffffffff16815260200190815260200160002060009054906101000a900460ff1615156109e257600080fd5b600073ffffffffffffffffffffffffffffffffffffffff168173ffffffffffffffffffffffffffffffffffffffff1614151515610a1b57fe5b806001808054809190600101610a319190611143565b815481101515610a3d57fe5b9060005260206000200160006101000a81548173ffffffffffffffffffffffffffffffffffffffff021916908373ffffffffffffffffffffffffffffffffffffffff16021790555060016000808373ffffffffffffffffffffffffffffffffffffffff1673ffffffffffffffffffffffffffffffffffffffff16815260200190815260200160002060006101000a81548160ff02191690831515021790555050565b600360205281600052604060002081815481101515610afa57fe5b906000526020600020906006020160009150915050806000015490806001015490806002015490806003015490806004015490806005018054600181600116156101000203166002900480601f016020809104026020016040519081016040528092919081815260200182805460018160011615610100020316600290048015610bc55780601f10610b9a57610100808354040283529160200191610bc5565b820191906000526020600020905b815481529060010190602001808311610ba857829003601f168201915b5050505050905086565b6000803373ffffffffffffffffffffffffffffffffffffffff1673ffffffffffffffffffffffffffffffffffffffff16815260200190815260200160002060009054906101000a900460ff161515610c2657600080fd5b6000600360008373ffffffffffffffffffffffffffffffffffffffff1673ffffffffffffffffffffffffffffffffffffffff16815260200190815260200160002080549050111515610cdd57806002808054809190600101610c889190611143565b815481101515610c9457fe5b9060005260206000200160006101000a81548173ffffffffffffffffffffffffffffffffffffffff021916908373ffffffffffffffffffffffffffffffffffffffff1602179055505b600360008273ffffffffffffffffffffffffffffffffffffffff1673ffffffffffffffffffffffffffffffffffffffff16815260200190815260200160002060c060405190810160405280878152602001858152602001868152602001848152602001428152602001602060405190810160405280600081525081525090806001815401808255809150509060018203906000526020600020906006020160009091929091909150600082015181600001556020820151816001015560408201518160020155606082015181600301556080820151816004015560a0820151816005019080519060200190610dd392919061116f565b505050505050505050565b6000803373ffffffffffffffffffffffffffffffffffffffff1673ffffffffffffffffffffffffffffffffffffffff16815260200190815260200160002060009054906101000a900460ff161515610e3557600080fd5b80600460006101000a81548160ff02191690831515021790555050565b60606002805480602002602001604051908101604052809291908181526020018280548015610ed657602002820191906000526020600020905b8160009054906101000a900473ffffffffffffffffffffffffffffffffffffffff1673ffffffffffffffffffffffffffffffffffffffff1681526020019060010190808311610e8c575b5050505050905090565b60006020528060005260406000206000915054906101000a900460ff1681565b600460009054906101000a900460ff161515610f1b57600080fd5b6000600360003373ffffffffffffffffffffffffffffffffffffffff1673ffffffffffffffffffffffffffffffffffffffff16815260200190815260200160002080549050111515610fd257336002808054809190600101610f7d9190611143565b815481101515610f8957fe5b9060005260206000200160006101000a81548173ffffffffffffffffffffffffffffffffffffffff021916908373ffffffffffffffffffffffffffffffffffffffff1602179055505b600360003373ffffffffffffffffffffffffffffffffffffffff1673ffffffffffffffffffffffffffffffffffffffff16815260200190815260200160002060c0604051908101604052808781526020018581526020018681526020018481526020014281526020018381525090806001815401808255809150509060018203906000526020600020906006020160009091929091909150600082015181600001556020820151816001015560408201518160020155606082015181600301556080820151816004015560a08201518160050190805190602001906110b892919061116f565b505050505050505050565b828054600181600116156101000203166002900490600052602060002090601f016020900481019282601f1061110457805160ff1916838001178555611132565b82800160010185558215611132579182015b82811115611131578251825591602001919060010190611116565b5b50905061113f91906111ef565b5090565b81548183558181111561116a5781836000526020600020918201910161116991906111ef565b5b505050565b828054600181600116156101000203166002900490600052602060002090601f016020900481019282601f106111b057805160ff19168380011785556111de565b828001600101855582156111de579182015b828111156111dd5782518255916020019190600101906111c2565b5b5090506111eb91906111ef565b5090565b61121191905b8082111561120d5760008160009055506001016111f5565b5090565b90565b60006112208235611908565b905092915050565b60006112348235611928565b905092915050565b60006112488235611934565b905092915050565b600082601f830112151561126357600080fd5b81356112766112718261183c565b61180f565b9150808252602083016020830185838301111561129257600080fd5b61129d838284611948565b50505092915050565b60006112b2823561193e565b905092915050565b6000602082840312156112cc57600080fd5b60006112da84828501611214565b91505092915050565b600080604083850312156112f657600080fd5b600061130485828601611214565b9250506020611315858286016112a6565b9150509250929050565b60006020828403121561133157600080fd5b600061133f84828501611228565b91505092915050565b600080600080600060a0868803121561136057600080fd5b600061136e8882890161123c565b955050602061137f8882890161123c565b94505060406113908882890161123c565b93505060606113a18882890161123c565b92505060806113b288828901611214565b9150509295509295909350565b600080600080600060a086880312156113d757600080fd5b60006113e58882890161123c565b95505060206113f68882890161123c565b94505060406114078882890161123c565b93505060606114188882890161123c565b925050608086013567ffffffffffffffff81111561143557600080fd5b61144188828901611250565b9150509295509295909350565b6000806040838503121561146157600080fd5b600083013567ffffffffffffffff81111561147b57600080fd5b61148785828601611250565b9250506020611498858286016112a6565b9150509250929050565b6000602082840312156114b457600080fd5b60006114c2848285016112a6565b91505092915050565b6114d4816118c8565b82525050565b60006114e582611882565b8084526020840193506114f783611868565b60005b828110156115295761150d8683516114cb565b611516826118ae565b91506020860195506001810190506114fa565b50849250505092915050565b60006115408261188d565b8084526020840193508360208202850161155985611875565b60005b8481101561159257838303885261157483835161162d565b925061157f826118bb565b915060208801975060018101905061155c565b508196508694505050505092915050565b6115ac816118e8565b82525050565b6115bb816118f4565b82525050565b60006115cc826118a3565b8084526115e0816020860160208601611957565b6115e98161198a565b602085010191505092915050565b600061160282611898565b808452611616816020860160208601611957565b61161f8161198a565b602085010191505092915050565b600060c08301600083015161164560008601826115b2565b50602083015161165860208601826115b2565b50604083015161166b60408601826115b2565b50606083015161167e60608601826115b2565b50608083015161169160808601826116b6565b5060a083015184820360a08601526116a982826115f7565b9150508091505092915050565b6116bf816118fe565b82525050565b60006020820190506116da60008301846114cb565b92915050565b600060208201905081810360008301526116fa81846114da565b905092915050565b6000602082019050818103600083015261171c8184611535565b905092915050565b600060208201905061173960008301846115a3565b92915050565b600060c08201905061175460008301896115b2565b61176160208301886115b2565b61176e60408301876115b2565b61177b60608301866115b2565b61178860808301856116b6565b81810360a083015261179a81846115f7565b9050979650505050505050565b600060c0820190506117bc60008301896115b2565b6117c960208301886115b2565b6117d660408301876115b2565b6117e360608301866115b2565b6117f060808301856116b6565b81810360a083015261180281846115c1565b9050979650505050505050565b6000604051905081810181811067ffffffffffffffff8211171561183257600080fd5b8060405250919050565b600067ffffffffffffffff82111561185357600080fd5b601f19601f8301169050602081019050919050565b6000602082019050919050565b6000602082019050919050565b600081519050919050565b600081519050919050565b600081519050919050565b600081519050919050565b6000602082019050919050565b6000602082019050919050565b600073ffffffffffffffffffffffffffffffffffffffff82169050919050565b60008115159050919050565b6000819050919050565b6000819050919050565b600073ffffffffffffffffffffffffffffffffffffffff82169050919050565b60008115159050919050565b6000819050919050565b6000819050919050565b82818337600083830152505050565b60005b8381101561197557808201518184015260208101905061195a565b83811115611984576000848401525b50505050565b6000601f19601f83011690509190505600a265627a7a72305820a7932bff3157dbeb43665a8c15de42b9fbd81388fb84e7d57f4c5c2efb7270f26c6578706572696d656e74616cf50037",
  "source": "pragma solidity ^0.4.25;\npragma experimental ABIEncoderV2;\n\nimport 'zeppelin-solidity/contracts/math/SafeMath.sol';\n\n/**\n * @title Utopia\n * @author Reza Bakhshandeh <reza[dot]bakhshandeh[at]gmail[dot]com>\n */\ncontract Utopia{\n    using SafeMath for uint256;\n\n    struct Land{\n        int256 x1;\n        int256 x2;\n        int256 y1;\n        int256 y2;\n        uint256 time;\n        string hash;\n    }\n\n    // admins\n    mapping(address => bool) public adminsMap;\n    address[] public admins;\n\n    address[] public owners;\n    mapping(address => Land[]) public lands;\n\n    bool public allowPublicAssign = true;\n\n    constructor(){\n        admins[admins.length++] = msg.sender;\n        adminsMap[msg.sender] = true;\n    }\n\n    modifier isPublic(){\n        require(allowPublicAssign);\n        _;\n    }\n\n    modifier isAdmin(){\n        require(adminsMap[msg.sender]);\n        _;\n    }\n\n    function getOwners() view public returns (address[]) {\n        return owners;\n    }\n\n    \n    function getLands(address owner) view public returns (Land[]) {\n        return lands[owner];\n    }\n\n    function getLand(address owner, uint256 index) \n    view public returns (\n        int256 x1,\n        int256 y1,\n        int256 x2,\n        int256 y2,\n        uint256 time, string hash) {\n        if(lands[owner].length <= index){\n            return;\n        }\n        x1 = lands[owner][index].x1;\n        x2 = lands[owner][index].x2;\n        y1 = lands[owner][index].y1;\n        y2 = lands[owner][index].y2;\n        time = lands[owner][index].time;\n        hash = lands[owner][index].hash;\n    }\n\n\n    function assignLand(int256 x1, \n        int256 y1, int256 x2, int256 y2, string hash) isPublic{\n        if(!(lands[msg.sender].length > 0)){\n            owners[owners.length++] = msg.sender;\n        }\n        lands[msg.sender].push(Land(\n            x1,\n            x2,\n            y1,\n            y2,\n            now,\n            hash\n        ));\n    }\n\n    function adminAssignLand(int256 x1, \n        int256 y1, int256 x2, int256 y2, address addr) isAdmin{\n        if(!(lands[addr].length > 0)){\n            owners[owners.length++] = addr;\n        }\n        lands[addr].push(Land(\n            x1,\n            x2,\n            y1,\n            y2,\n            now,\n            \"\"\n        ));\n    }\n\n    function adminSetIsPublic(bool val) isAdmin{\n        allowPublicAssign = val;\n    }\n\n    function addAdmin(address addr) isAdmin{\n        assert(addr != address(0));\n        admins[admins.length++] = addr;\n        adminsMap[addr] = true;\n    }\n\n    function updateLand(string hash, uint256 index) returns (bool){\n        if(lands[msg.sender].length <= index){\n            return false;\n        }\n        lands[msg.sender][index].hash = hash;\n        return true;\n    }\n}\n",
  "sourcePath": "/home/projects/projects/utopia_smart_contracts/contracts/Utopia.sol",
  "compiler": {
    "name": "solc",
    "version": "0.4.25+commit.59dbf8f1.Emscripten.clang"
  },
  "schemaVersion": "2.0.2",
  "updatedAt": "2020-05-18T21:39:56.935Z"
}