{
  "contractName": "Utopia",
  "abi": [
    {
      "constant": true,
      "inputs": [
        {
          "name": "",
          "type": "uint256"
        }
      ],
      "name": "owners",
      "outputs": [
        {
          "name": "",
          "type": "address"
        }
      ],
      "payable": false,
      "stateMutability": "view",
      "type": "function"
    },
    {
      "constant": true,
      "inputs": [],
      "name": "allowPublicAssign",
      "outputs": [
        {
          "name": "",
          "type": "bool"
        }
      ],
      "payable": false,
      "stateMutability": "view",
      "type": "function"
    },
    {
      "constant": true,
      "inputs": [
        {
          "name": "",
          "type": "uint256"
        }
      ],
      "name": "admins",
      "outputs": [
        {
          "name": "",
          "type": "address"
        }
      ],
      "payable": false,
      "stateMutability": "view",
      "type": "function"
    },
    {
      "constant": true,
      "inputs": [
        {
          "name": "",
          "type": "address"
        },
        {
          "name": "",
          "type": "uint256"
        }
      ],
      "name": "lands",
      "outputs": [
        {
          "name": "x1",
          "type": "int256"
        },
        {
          "name": "x2",
          "type": "int256"
        },
        {
          "name": "y1",
          "type": "int256"
        },
        {
          "name": "y2",
          "type": "int256"
        },
        {
          "name": "time",
          "type": "uint256"
        },
        {
          "name": "hash",
          "type": "string"
        }
      ],
      "payable": false,
      "stateMutability": "view",
      "type": "function"
    },
    {
      "constant": true,
      "inputs": [
        {
          "name": "",
          "type": "address"
        }
      ],
      "name": "adminsMap",
      "outputs": [
        {
          "name": "",
          "type": "bool"
        }
      ],
      "payable": false,
      "stateMutability": "view",
      "type": "function"
    },
    {
      "inputs": [],
      "payable": false,
      "stateMutability": "nonpayable",
      "type": "constructor"
    },
    {
      "constant": true,
      "inputs": [],
      "name": "getOwners",
      "outputs": [
        {
          "name": "",
          "type": "address[]"
        }
      ],
      "payable": false,
      "stateMutability": "view",
      "type": "function"
    },
    {
      "constant": true,
      "inputs": [
        {
          "name": "owner",
          "type": "address"
        }
      ],
      "name": "getLands",
      "outputs": [
        {
          "components": [
            {
              "name": "x1",
              "type": "int256"
            },
            {
              "name": "x2",
              "type": "int256"
            },
            {
              "name": "y1",
              "type": "int256"
            },
            {
              "name": "y2",
              "type": "int256"
            },
            {
              "name": "time",
              "type": "uint256"
            },
            {
              "name": "hash",
              "type": "string"
            }
          ],
          "name": "",
          "type": "tuple[]"
        }
      ],
      "payable": false,
      "stateMutability": "view",
      "type": "function"
    },
    {
      "constant": true,
      "inputs": [
        {
          "name": "owner",
          "type": "address"
        },
        {
          "name": "index",
          "type": "uint256"
        }
      ],
      "name": "getLand",
      "outputs": [
        {
          "name": "x1",
          "type": "int256"
        },
        {
          "name": "y1",
          "type": "int256"
        },
        {
          "name": "x2",
          "type": "int256"
        },
        {
          "name": "y2",
          "type": "int256"
        },
        {
          "name": "time",
          "type": "uint256"
        },
        {
          "name": "hash",
          "type": "string"
        }
      ],
      "payable": false,
      "stateMutability": "view",
      "type": "function"
    },
    {
      "constant": false,
      "inputs": [
        {
          "name": "x1",
          "type": "int256"
        },
        {
          "name": "y1",
          "type": "int256"
        },
        {
          "name": "x2",
          "type": "int256"
        },
        {
          "name": "y2",
          "type": "int256"
        }
      ],
      "name": "assignLand",
      "outputs": [],
      "payable": false,
      "stateMutability": "nonpayable",
      "type": "function"
    },
    {
      "constant": false,
      "inputs": [
        {
          "name": "x1",
          "type": "int256"
        },
        {
          "name": "y1",
          "type": "int256"
        },
        {
          "name": "x2",
          "type": "int256"
        },
        {
          "name": "y2",
          "type": "int256"
        },
        {
          "name": "addr",
          "type": "address"
        }
      ],
      "name": "adminAssignLand",
      "outputs": [],
      "payable": false,
      "stateMutability": "nonpayable",
      "type": "function"
    },
    {
      "constant": false,
      "inputs": [
        {
          "name": "val",
          "type": "bool"
        }
      ],
      "name": "adminSetIsPublic",
      "outputs": [],
      "payable": false,
      "stateMutability": "nonpayable",
      "type": "function"
    },
    {
      "constant": false,
      "inputs": [
        {
          "name": "addr",
          "type": "address"
        }
      ],
      "name": "addAdmin",
      "outputs": [],
      "payable": false,
      "stateMutability": "nonpayable",
      "type": "function"
    },
    {
      "constant": false,
      "inputs": [
        {
          "name": "hash",
          "type": "string"
        },
        {
          "name": "index",
          "type": "uint256"
        }
      ],
      "name": "updateLand",
      "outputs": [
        {
          "name": "",
          "type": "bool"
        }
      ],
      "payable": false,
      "stateMutability": "nonpayable",
      "type": "function"
    }
  ],
  "bytecode": "0x60806040526001600460006101000a81548160ff0219169083151502179055503480156200002c57600080fd5b50336001808054809190600101620000459190620000f7565b8154811015156200005257fe5b9060005260206000200160006101000a81548173ffffffffffffffffffffffffffffffffffffffff021916908373ffffffffffffffffffffffffffffffffffffffff16021790555060016000803373ffffffffffffffffffffffffffffffffffffffff1673ffffffffffffffffffffffffffffffffffffffff16815260200190815260200160002060006101000a81548160ff0219169083151502179055506200014e565b815481835581811115620001215781836000526020600020918201910162000120919062000126565b5b505050565b6200014b91905b80821115620001475760008160009055506001016200012d565b5090565b90565b6119b8806200015e6000396000f3006080604052600436106100c5576000357c0100000000000000000000000000000000000000000000000000000000900463ffffffff168063025e7c27146100ca5780630824c9121461010757806314bfd6d0146101325780631c5717d21461016f578063254c44f51461019857806365742555146101d55780636fc58f10146102175780637048027514610254578063756efcf71461027d57806379eca727146102bf5780638ee344cc146102e8578063a0e67e2b14610311578063e8542b071461033c575b600080fd5b3480156100d657600080fd5b506100f160048036036100ec9190810190611485565b610379565b6040516100fe91906116a8565b60405180910390f35b34801561011357600080fd5b5061011c6103b7565b6040516101299190611707565b60405180910390f35b34801561013e57600080fd5b5061015960048036036101549190810190611485565b6103ca565b60405161016691906116a8565b60405180910390f35b34801561017b57600080fd5b5061019660048036036101919190810190611357565b610408565b005b3480156101a457600080fd5b506101bf60048036036101ba91908101906112c9565b6105da565b6040516101cc91906116e5565b60405180910390f35b3480156101e157600080fd5b506101fc60048036036101f791908101906112f2565b61074d565b60405161020e9695949392919061178a565b60405180910390f35b34801561022357600080fd5b5061023e60048036036102399190810190611431565b610a8a565b60405161024b9190611707565b60405180910390f35b34801561026057600080fd5b5061027b600480360361027691908101906112c9565b610b5d565b005b34801561028957600080fd5b506102a4600480360361029f91908101906112f2565b610cb1565b6040516102b696959493929190611722565b60405180910390f35b3480156102cb57600080fd5b506102e660048036036102e191908101906113ba565b610da1565b005b3480156102f457600080fd5b5061030f600480360361030a919081019061132e565b610fb0565b005b34801561031d57600080fd5b50610326611024565b60405161033391906116c3565b60405180910390f35b34801561034857600080fd5b50610363600480360361035e91908101906112c9565b6110b2565b6040516103709190611707565b60405180910390f35b60028181548110151561038857fe5b906000526020600020016000915054906101000a900473ffffffffffffffffffffffffffffffffffffffff1681565b600460009054906101000a900460ff1681565b6001818154811015156103d957fe5b906000526020600020016000915054906101000a900473ffffffffffffffffffffffffffffffffffffffff1681565b600460009054906101000a900460ff16151561042357600080fd5b6000600360003373ffffffffffffffffffffffffffffffffffffffff1673ffffffffffffffffffffffffffffffffffffffff168152602001908152602001600020805490501115156104da5733600280805480919060010161048591906110d2565b81548110151561049157fe5b9060005260206000200160006101000a81548173ffffffffffffffffffffffffffffffffffffffff021916908373ffffffffffffffffffffffffffffffffffffffff1602179055505b600360003373ffffffffffffffffffffffffffffffffffffffff1673ffffffffffffffffffffffffffffffffffffffff16815260200190815260200160002060c060405190810160405280868152602001848152602001858152602001838152602001428152602001602060405190810160405280600081525081525090806001815401808255809150509060018203906000526020600020906006020160009091929091909150600082015181600001556020820151816001015560408201518160020155606082015181600301556080820151816004015560a08201518160050190805190602001906105d09291906110fe565b5050505050505050565b6060600360008373ffffffffffffffffffffffffffffffffffffffff1673ffffffffffffffffffffffffffffffffffffffff168152602001908152602001600020805480602002602001604051908101604052809291908181526020016000905b82821015610742578382906000526020600020906006020160c060405190810160405290816000820154815260200160018201548152602001600282015481526020016003820154815260200160048201548152602001600582018054600181600116156101000203166002900480601f01602080910402602001604051908101604052809291908181526020018280546001816001161561010002031660029004801561072a5780601f106106ff5761010080835404028352916020019161072a565b820191906000526020600020905b81548152906001019060200180831161070d57829003601f168201915b5050505050815250508152602001906001019061063b565b505050509050919050565b6000806000806000606086600360008a73ffffffffffffffffffffffffffffffffffffffff1673ffffffffffffffffffffffffffffffffffffffff168152602001908152602001600020805490501115156107a757610a80565b600360008973ffffffffffffffffffffffffffffffffffffffff1673ffffffffffffffffffffffffffffffffffffffff168152602001908152602001600020878154811015156107f357fe5b9060005260206000209060060201600001549550600360008973ffffffffffffffffffffffffffffffffffffffff1673ffffffffffffffffffffffffffffffffffffffff1681526020019081526020016000208781548110151561085357fe5b9060005260206000209060060201600101549350600360008973ffffffffffffffffffffffffffffffffffffffff1673ffffffffffffffffffffffffffffffffffffffff168152602001908152602001600020878154811015156108b357fe5b9060005260206000209060060201600201549450600360008973ffffffffffffffffffffffffffffffffffffffff1673ffffffffffffffffffffffffffffffffffffffff1681526020019081526020016000208781548110151561091357fe5b9060005260206000209060060201600301549250600360008973ffffffffffffffffffffffffffffffffffffffff1673ffffffffffffffffffffffffffffffffffffffff1681526020019081526020016000208781548110151561097357fe5b9060005260206000209060060201600401549150600360008973ffffffffffffffffffffffffffffffffffffffff1673ffffffffffffffffffffffffffffffffffffffff168152602001908152602001600020878154811015156109d357fe5b90600052602060002090600602016005018054600181600116156101000203166002900480601f016020809104026020016040519081016040528092919081815260200182805460018160011615610100020316600290048015610a785780601f10610a4d57610100808354040283529160200191610a78565b820191906000526020600020905b815481529060010190602001808311610a5b57829003601f168201915b505050505090505b9295509295509295565b600081600360003373ffffffffffffffffffffffffffffffffffffffff1673ffffffffffffffffffffffffffffffffffffffff16815260200190815260200160002080549050111515610ae05760009050610b57565b82600360003373ffffffffffffffffffffffffffffffffffffffff1673ffffffffffffffffffffffffffffffffffffffff16815260200190815260200160002083815481101515610b2d57fe5b90600052602060002090600602016005019080519060200190610b5192919061117e565b50600190505b92915050565b6000803373ffffffffffffffffffffffffffffffffffffffff1673ffffffffffffffffffffffffffffffffffffffff16815260200190815260200160002060009054906101000a900460ff161515610bb457600080fd5b600073ffffffffffffffffffffffffffffffffffffffff168173ffffffffffffffffffffffffffffffffffffffff1614151515610bed57fe5b806001808054809190600101610c0391906110d2565b815481101515610c0f57fe5b9060005260206000200160006101000a81548173ffffffffffffffffffffffffffffffffffffffff021916908373ffffffffffffffffffffffffffffffffffffffff16021790555060016000808373ffffffffffffffffffffffffffffffffffffffff1673ffffffffffffffffffffffffffffffffffffffff16815260200190815260200160002060006101000a81548160ff02191690831515021790555050565b600360205281600052604060002081815481101515610ccc57fe5b906000526020600020906006020160009150915050806000015490806001015490806002015490806003015490806004015490806005018054600181600116156101000203166002900480601f016020809104026020016040519081016040528092919081815260200182805460018160011615610100020316600290048015610d975780601f10610d6c57610100808354040283529160200191610d97565b820191906000526020600020905b815481529060010190602001808311610d7a57829003601f168201915b5050505050905086565b6000803373ffffffffffffffffffffffffffffffffffffffff1673ffffffffffffffffffffffffffffffffffffffff16815260200190815260200160002060009054906101000a900460ff161515610df857600080fd5b6000600360008373ffffffffffffffffffffffffffffffffffffffff1673ffffffffffffffffffffffffffffffffffffffff16815260200190815260200160002080549050111515610eaf57806002808054809190600101610e5a91906110d2565b815481101515610e6657fe5b9060005260206000200160006101000a81548173ffffffffffffffffffffffffffffffffffffffff021916908373ffffffffffffffffffffffffffffffffffffffff1602179055505b600360008273ffffffffffffffffffffffffffffffffffffffff1673ffffffffffffffffffffffffffffffffffffffff16815260200190815260200160002060c060405190810160405280878152602001858152602001868152602001848152602001428152602001602060405190810160405280600081525081525090806001815401808255809150509060018203906000526020600020906006020160009091929091909150600082015181600001556020820151816001015560408201518160020155606082015181600301556080820151816004015560a0820151816005019080519060200190610fa59291906110fe565b505050505050505050565b6000803373ffffffffffffffffffffffffffffffffffffffff1673ffffffffffffffffffffffffffffffffffffffff16815260200190815260200160002060009054906101000a900460ff16151561100757600080fd5b80600460006101000a81548160ff02191690831515021790555050565b606060028054806020026020016040519081016040528092919081815260200182805480156110a857602002820191906000526020600020905b8160009054906101000a900473ffffffffffffffffffffffffffffffffffffffff1673ffffffffffffffffffffffffffffffffffffffff168152602001906001019080831161105e575b5050505050905090565b60006020528060005260406000206000915054906101000a900460ff1681565b8154818355818111156110f9578183600052602060002091820191016110f891906111fe565b5b505050565b828054600181600116156101000203166002900490600052602060002090601f016020900481019282601f1061113f57805160ff191683800117855561116d565b8280016001018555821561116d579182015b8281111561116c578251825591602001919060010190611151565b5b50905061117a91906111fe565b5090565b828054600181600116156101000203166002900490600052602060002090601f016020900481019282601f106111bf57805160ff19168380011785556111ed565b828001600101855582156111ed579182015b828111156111ec5782518255916020019190600101906111d1565b5b5090506111fa91906111fe565b5090565b61122091905b8082111561121c576000816000905550600101611204565b5090565b90565b600061122f82356118eb565b905092915050565b6000611243823561190b565b905092915050565b60006112578235611917565b905092915050565b600082601f830112151561127257600080fd5b81356112856112808261181f565b6117f2565b915080825260208301602083018583830111156112a157600080fd5b6112ac83828461192b565b50505092915050565b60006112c18235611921565b905092915050565b6000602082840312156112db57600080fd5b60006112e984828501611223565b91505092915050565b6000806040838503121561130557600080fd5b600061131385828601611223565b9250506020611324858286016112b5565b9150509250929050565b60006020828403121561134057600080fd5b600061134e84828501611237565b91505092915050565b6000806000806080858703121561136d57600080fd5b600061137b8782880161124b565b945050602061138c8782880161124b565b935050604061139d8782880161124b565b92505060606113ae8782880161124b565b91505092959194509250565b600080600080600060a086880312156113d257600080fd5b60006113e08882890161124b565b95505060206113f18882890161124b565b94505060406114028882890161124b565b93505060606114138882890161124b565b925050608061142488828901611223565b9150509295509295909350565b6000806040838503121561144457600080fd5b600083013567ffffffffffffffff81111561145e57600080fd5b61146a8582860161125f565b925050602061147b858286016112b5565b9150509250929050565b60006020828403121561149757600080fd5b60006114a5848285016112b5565b91505092915050565b6114b7816118ab565b82525050565b60006114c882611865565b8084526020840193506114da8361184b565b60005b8281101561150c576114f08683516114ae565b6114f982611891565b91506020860195506001810190506114dd565b50849250505092915050565b600061152382611870565b8084526020840193508360208202850161153c85611858565b60005b84811015611575578383038852611557838351611610565b92506115628261189e565b915060208801975060018101905061153f565b508196508694505050505092915050565b61158f816118cb565b82525050565b61159e816118d7565b82525050565b60006115af82611886565b8084526115c381602086016020860161193a565b6115cc8161196d565b602085010191505092915050565b60006115e58261187b565b8084526115f981602086016020860161193a565b6116028161196d565b602085010191505092915050565b600060c0830160008301516116286000860182611595565b50602083015161163b6020860182611595565b50604083015161164e6040860182611595565b5060608301516116616060860182611595565b5060808301516116746080860182611699565b5060a083015184820360a086015261168c82826115da565b9150508091505092915050565b6116a2816118e1565b82525050565b60006020820190506116bd60008301846114ae565b92915050565b600060208201905081810360008301526116dd81846114bd565b905092915050565b600060208201905081810360008301526116ff8184611518565b905092915050565b600060208201905061171c6000830184611586565b92915050565b600060c0820190506117376000830189611595565b6117446020830188611595565b6117516040830187611595565b61175e6060830186611595565b61176b6080830185611699565b81810360a083015261177d81846115da565b9050979650505050505050565b600060c08201905061179f6000830189611595565b6117ac6020830188611595565b6117b96040830187611595565b6117c66060830186611595565b6117d36080830185611699565b81810360a08301526117e581846115a4565b9050979650505050505050565b6000604051905081810181811067ffffffffffffffff8211171561181557600080fd5b8060405250919050565b600067ffffffffffffffff82111561183657600080fd5b601f19601f8301169050602081019050919050565b6000602082019050919050565b6000602082019050919050565b600081519050919050565b600081519050919050565b600081519050919050565b600081519050919050565b6000602082019050919050565b6000602082019050919050565b600073ffffffffffffffffffffffffffffffffffffffff82169050919050565b60008115159050919050565b6000819050919050565b6000819050919050565b600073ffffffffffffffffffffffffffffffffffffffff82169050919050565b60008115159050919050565b6000819050919050565b6000819050919050565b82818337600083830152505050565b60005b8381101561195857808201518184015260208101905061193d565b83811115611967576000848401525b50505050565b6000601f19601f83011690509190505600a265627a7a72305820a04b746fa76983ed589ed2c0b45016fe91ea96a527dfdfdfaa415f47adcb34c26c6578706572696d656e74616cf50037",
  "source": "pragma solidity ^0.4.25;\npragma experimental ABIEncoderV2;\n\nimport 'zeppelin-solidity/contracts/math/SafeMath.sol';\n\n/**\n * @title Utopia\n * @author Reza Bakhshandeh <reza[dot]bakhshandeh[at]gmail[dot]com>\n */\ncontract Utopia{\n    using SafeMath for uint256;\n\n    struct Land{\n        int256 x1;\n        int256 x2;\n        int256 y1;\n        int256 y2;\n        uint256 time;\n        string hash;\n    }\n\n    // admins\n    mapping(address => bool) public adminsMap;\n    address[] public admins;\n\n    address[] public owners;\n    mapping(address => Land[]) public lands;\n\n    bool public allowPublicAssign = true;\n\n    constructor(){\n        admins[admins.length++] = msg.sender;\n        adminsMap[msg.sender] = true;\n    }\n\n    modifier isPublic(){\n        require(allowPublicAssign);\n        _;\n    }\n\n    modifier isAdmin(){\n        require(adminsMap[msg.sender]);\n        _;\n    }\n\n    function getOwners() view public returns (address[]) {\n        return owners;\n    }\n\n    \n    function getLands(address owner) view public returns (Land[]) {\n        return lands[owner];\n    }\n\n    function getLand(address owner, uint256 index) \n    view public returns (\n        int256 x1,\n        int256 y1,\n        int256 x2,\n        int256 y2,\n        uint256 time, string hash) {\n        if(lands[owner].length <= index){\n            return;\n        }\n        x1 = lands[owner][index].x1;\n        x2 = lands[owner][index].x2;\n        y1 = lands[owner][index].y1;\n        y2 = lands[owner][index].y2;\n        time = lands[owner][index].time;\n        hash = lands[owner][index].hash;\n    }\n\n\n    function assignLand(int256 x1, \n        int256 y1, int256 x2, int256 y2) isPublic{\n        if(!(lands[msg.sender].length > 0)){\n            owners[owners.length++] = msg.sender;\n        }\n        lands[msg.sender].push(Land(\n            x1,\n            x2,\n            y1,\n            y2,\n            now,\n            \"\"\n        ));\n    }\n\n    function adminAssignLand(int256 x1, \n        int256 y1, int256 x2, int256 y2, address addr) isAdmin{\n        if(!(lands[addr].length > 0)){\n            owners[owners.length++] = addr;\n        }\n        lands[addr].push(Land(\n            x1,\n            x2,\n            y1,\n            y2,\n            now,\n            \"\"\n        ));\n    }\n\n    function adminSetIsPublic(bool val) isAdmin{\n        allowPublicAssign = val;\n    }\n\n    function addAdmin(address addr) isAdmin{\n        assert(addr != address(0));\n        admins[admins.length++] = addr;\n        adminsMap[addr] = true;\n    }\n\n    function updateLand(string hash, uint256 index) returns (bool){\n        if(lands[msg.sender].length <= index){\n            return false;\n        }\n        lands[msg.sender][index].hash = hash;\n        return true;\n    }\n}\n",
  "sourcePath": "/home/projects/projects/utopia_smart_contracts/contracts/Utopia.sol",
  "compiler": {
    "name": "solc",
    "version": "0.4.25+commit.59dbf8f1.Emscripten.clang"
  },
  "schemaVersion": "2.0.2",
  "updatedAt": "2019-12-11T09:24:01.898Z"
}