{
  "contractName": "Utopia",
  "abi": [
    {
      "constant": true,
      "inputs": [
        {
          "name": "",
          "type": "uint256"
        }
      ],
      "name": "owners",
      "outputs": [
        {
          "name": "",
          "type": "address"
        }
      ],
      "payable": false,
      "stateMutability": "view",
      "type": "function"
    },
    {
      "constant": true,
      "inputs": [],
      "name": "allowPublicAssign",
      "outputs": [
        {
          "name": "",
          "type": "bool"
        }
      ],
      "payable": false,
      "stateMutability": "view",
      "type": "function"
    },
    {
      "constant": true,
      "inputs": [
        {
          "name": "",
          "type": "uint256"
        }
      ],
      "name": "admins",
      "outputs": [
        {
          "name": "",
          "type": "address"
        }
      ],
      "payable": false,
      "stateMutability": "view",
      "type": "function"
    },
    {
      "constant": true,
      "inputs": [],
      "name": "fundsWallet",
      "outputs": [
        {
          "name": "",
          "type": "address"
        }
      ],
      "payable": false,
      "stateMutability": "view",
      "type": "function"
    },
    {
      "constant": true,
      "inputs": [],
      "name": "unitLandPrice",
      "outputs": [
        {
          "name": "",
          "type": "uint256"
        }
      ],
      "payable": false,
      "stateMutability": "view",
      "type": "function"
    },
    {
      "constant": true,
      "inputs": [
        {
          "name": "",
          "type": "address"
        },
        {
          "name": "",
          "type": "uint256"
        }
      ],
      "name": "lands",
      "outputs": [
        {
          "name": "x1",
          "type": "int256"
        },
        {
          "name": "x2",
          "type": "int256"
        },
        {
          "name": "y1",
          "type": "int256"
        },
        {
          "name": "y2",
          "type": "int256"
        },
        {
          "name": "time",
          "type": "uint256"
        },
        {
          "name": "hash",
          "type": "string"
        }
      ],
      "payable": false,
      "stateMutability": "view",
      "type": "function"
    },
    {
      "constant": true,
      "inputs": [
        {
          "name": "",
          "type": "address"
        }
      ],
      "name": "adminsMap",
      "outputs": [
        {
          "name": "",
          "type": "bool"
        }
      ],
      "payable": false,
      "stateMutability": "view",
      "type": "function"
    },
    {
      "inputs": [],
      "payable": false,
      "stateMutability": "nonpayable",
      "type": "constructor"
    },
    {
      "constant": true,
      "inputs": [],
      "name": "getOwners",
      "outputs": [
        {
          "name": "",
          "type": "address[]"
        }
      ],
      "payable": false,
      "stateMutability": "view",
      "type": "function"
    },
    {
      "constant": true,
      "inputs": [
        {
          "name": "owner",
          "type": "address"
        }
      ],
      "name": "getLands",
      "outputs": [
        {
          "components": [
            {
              "name": "x1",
              "type": "int256"
            },
            {
              "name": "x2",
              "type": "int256"
            },
            {
              "name": "y1",
              "type": "int256"
            },
            {
              "name": "y2",
              "type": "int256"
            },
            {
              "name": "time",
              "type": "uint256"
            },
            {
              "name": "hash",
              "type": "string"
            }
          ],
          "name": "",
          "type": "tuple[]"
        }
      ],
      "payable": false,
      "stateMutability": "view",
      "type": "function"
    },
    {
      "constant": true,
      "inputs": [
        {
          "name": "owner",
          "type": "address"
        },
        {
          "name": "index",
          "type": "uint256"
        }
      ],
      "name": "getLand",
      "outputs": [
        {
          "name": "x1",
          "type": "int256"
        },
        {
          "name": "y1",
          "type": "int256"
        },
        {
          "name": "x2",
          "type": "int256"
        },
        {
          "name": "y2",
          "type": "int256"
        },
        {
          "name": "time",
          "type": "uint256"
        },
        {
          "name": "hash",
          "type": "string"
        }
      ],
      "payable": false,
      "stateMutability": "view",
      "type": "function"
    },
    {
      "constant": false,
      "inputs": [
        {
          "name": "x1",
          "type": "int256"
        },
        {
          "name": "y1",
          "type": "int256"
        },
        {
          "name": "x2",
          "type": "int256"
        },
        {
          "name": "y2",
          "type": "int256"
        },
        {
          "name": "hash",
          "type": "string"
        }
      ],
      "name": "assignLand",
      "outputs": [],
      "payable": true,
      "stateMutability": "payable",
      "type": "function"
    },
    {
      "constant": false,
      "inputs": [
        {
          "name": "x1",
          "type": "int256"
        },
        {
          "name": "y1",
          "type": "int256"
        },
        {
          "name": "x2",
          "type": "int256"
        },
        {
          "name": "y2",
          "type": "int256"
        },
        {
          "name": "addr",
          "type": "address"
        }
      ],
      "name": "adminAssignLand",
      "outputs": [],
      "payable": false,
      "stateMutability": "nonpayable",
      "type": "function"
    },
    {
      "constant": false,
      "inputs": [
        {
          "name": "val",
          "type": "bool"
        }
      ],
      "name": "adminSetIsPublic",
      "outputs": [],
      "payable": false,
      "stateMutability": "nonpayable",
      "type": "function"
    },
    {
      "constant": false,
      "inputs": [
        {
          "name": "price",
          "type": "uint256"
        }
      ],
      "name": "adminSetUnitLandPrice",
      "outputs": [],
      "payable": false,
      "stateMutability": "nonpayable",
      "type": "function"
    },
    {
      "constant": false,
      "inputs": [
        {
          "name": "addr",
          "type": "address"
        }
      ],
      "name": "addAdmin",
      "outputs": [],
      "payable": false,
      "stateMutability": "nonpayable",
      "type": "function"
    },
    {
      "constant": false,
      "inputs": [
        {
          "name": "hash",
          "type": "string"
        },
        {
          "name": "index",
          "type": "uint256"
        }
      ],
      "name": "updateLand",
      "outputs": [
        {
          "name": "",
          "type": "bool"
        }
      ],
      "payable": false,
      "stateMutability": "nonpayable",
      "type": "function"
    },
    {
      "constant": true,
      "inputs": [
        {
          "name": "x",
          "type": "int256"
        }
      ],
      "name": "abs",
      "outputs": [
        {
          "name": "",
          "type": "uint256"
        }
      ],
      "payable": false,
      "stateMutability": "view",
      "type": "function"
    }
  ],
  "bytecode": "0x60806040526001600460006101000a81548160ff0219169083151502179055507338e41787d3f428fad17cfd5470c4cfc4c0ee3738600460016101000a81548173ffffffffffffffffffffffffffffffffffffffff021916908373ffffffffffffffffffffffffffffffffffffffff160217905550655af3107a40006005553480156200008b57600080fd5b50336001808054809190600101620000a4919062000156565b815481101515620000b157fe5b9060005260206000200160006101000a81548173ffffffffffffffffffffffffffffffffffffffff021916908373ffffffffffffffffffffffffffffffffffffffff16021790555060016000803373ffffffffffffffffffffffffffffffffffffffff1673ffffffffffffffffffffffffffffffffffffffff16815260200190815260200160002060006101000a81548160ff021916908315150217905550620001ad565b81548183558181111562000180578183600052602060002091820191016200017f919062000185565b5b505050565b620001aa91905b80821115620001a65760008160009055506001016200018c565b5090565b90565b611c5080620001bd6000396000f3006080604052600436106100f1576000357c0100000000000000000000000000000000000000000000000000000000900463ffffffff168063025e7c27146100f65780630824c9121461013357806314bfd6d01461015e5780631b5ac4b51461019b5780632194f3a2146101d8578063254c44f5146102035780632ebf964f1461024057806365742555146102695780636fb4971d146102ab5780636fc58f10146102d65780637048027514610313578063756efcf71461033c57806379eca7271461037e5780638ee344cc146103a7578063a0e67e2b146103d0578063e8542b07146103fb578063ef323a9d14610438575b600080fd5b34801561010257600080fd5b5061011d60048036036101189190810190611702565b610454565b60405161012a9190611925565b60405180910390f35b34801561013f57600080fd5b50610148610492565b6040516101559190611984565b60405180910390f35b34801561016a57600080fd5b5061018560048036036101809190810190611702565b6104a5565b6040516101929190611925565b60405180910390f35b3480156101a757600080fd5b506101c260048036036101bd919081019061157f565b6104e3565b6040516101cf9190611a6f565b60405180910390f35b3480156101e457600080fd5b506101ed61051d565b6040516101fa9190611925565b60405180910390f35b34801561020f57600080fd5b5061022a600480360361022591908101906114f1565b610543565b6040516102379190611962565b60405180910390f35b34801561024c57600080fd5b5061026760048036036102629190810190611702565b6106b6565b005b34801561027557600080fd5b50610290600480360361028b919081019061151a565b610717565b6040516102a296959493929190611a07565b60405180910390f35b3480156102b757600080fd5b506102c0610a54565b6040516102cd9190611a6f565b60405180910390f35b3480156102e257600080fd5b506102fd60048036036102f891908101906116ae565b610a5a565b60405161030a9190611984565b60405180910390f35b34801561031f57600080fd5b5061033a600480360361033591908101906114f1565b610b2d565b005b34801561034857600080fd5b50610363600480360361035e919081019061151a565b610c81565b6040516103759695949392919061199f565b60405180910390f35b34801561038a57600080fd5b506103a560048036036103a091908101906115a8565b610d71565b005b3480156103b357600080fd5b506103ce60048036036103c99190810190611556565b610f80565b005b3480156103dc57600080fd5b506103e5610ff4565b6040516103f29190611940565b60405180910390f35b34801561040757600080fd5b50610422600480360361041d91908101906114f1565b611082565b60405161042f9190611984565b60405180910390f35b610452600480360361044d919081019061161f565b6110a2565b005b60028181548110151561046357fe5b906000526020600020016000915054906101000a900473ffffffffffffffffffffffffffffffffffffffff1681565b600460009054906101000a900460ff1681565b6001818154811015156104b457fe5b906000526020600020016000915054906101000a900473ffffffffffffffffffffffffffffffffffffffff1681565b600080821361051457817fffffffffffffffffffffffffffffffffffffffffffffffffffffffffffffffff02610516565b815b9050919050565b600460019054906101000a900473ffffffffffffffffffffffffffffffffffffffff1681565b6060600360008373ffffffffffffffffffffffffffffffffffffffff1673ffffffffffffffffffffffffffffffffffffffff168152602001908152602001600020805480602002602001604051908101604052809291908181526020016000905b828210156106ab578382906000526020600020906006020160c060405190810160405290816000820154815260200160018201548152602001600282015481526020016003820154815260200160048201548152602001600582018054600181600116156101000203166002900480601f0160208091040260200160405190810160405280929190818152602001828054600181600116156101000203166002900480156106935780601f1061066857610100808354040283529160200191610693565b820191906000526020600020905b81548152906001019060200180831161067657829003601f168201915b505050505081525050815260200190600101906105a4565b505050509050919050565b6000803373ffffffffffffffffffffffffffffffffffffffff1673ffffffffffffffffffffffffffffffffffffffff16815260200190815260200160002060009054906101000a900460ff16151561070d57600080fd5b8060058190555050565b6000806000806000606086600360008a73ffffffffffffffffffffffffffffffffffffffff1673ffffffffffffffffffffffffffffffffffffffff1681526020019081526020016000208054905011151561077157610a4a565b600360008973ffffffffffffffffffffffffffffffffffffffff1673ffffffffffffffffffffffffffffffffffffffff168152602001908152602001600020878154811015156107bd57fe5b9060005260206000209060060201600001549550600360008973ffffffffffffffffffffffffffffffffffffffff1673ffffffffffffffffffffffffffffffffffffffff1681526020019081526020016000208781548110151561081d57fe5b9060005260206000209060060201600101549350600360008973ffffffffffffffffffffffffffffffffffffffff1673ffffffffffffffffffffffffffffffffffffffff1681526020019081526020016000208781548110151561087d57fe5b9060005260206000209060060201600201549450600360008973ffffffffffffffffffffffffffffffffffffffff1673ffffffffffffffffffffffffffffffffffffffff168152602001908152602001600020878154811015156108dd57fe5b9060005260206000209060060201600301549250600360008973ffffffffffffffffffffffffffffffffffffffff1673ffffffffffffffffffffffffffffffffffffffff1681526020019081526020016000208781548110151561093d57fe5b9060005260206000209060060201600401549150600360008973ffffffffffffffffffffffffffffffffffffffff1673ffffffffffffffffffffffffffffffffffffffff1681526020019081526020016000208781548110151561099d57fe5b90600052602060002090600602016005018054600181600116156101000203166002900480601f016020809104026020016040519081016040528092919081815260200182805460018160011615610100020316600290048015610a425780601f10610a1757610100808354040283529160200191610a42565b820191906000526020600020905b815481529060010190602001808311610a2557829003601f168201915b505050505090505b9295509295509295565b60055481565b600081600360003373ffffffffffffffffffffffffffffffffffffffff1673ffffffffffffffffffffffffffffffffffffffff16815260200190815260200160002080549050111515610ab05760009050610b27565b82600360003373ffffffffffffffffffffffffffffffffffffffff1673ffffffffffffffffffffffffffffffffffffffff16815260200190815260200160002083815481101515610afd57fe5b90600052602060002090600602016005019080519060200190610b219291906112fa565b50600190505b92915050565b6000803373ffffffffffffffffffffffffffffffffffffffff1673ffffffffffffffffffffffffffffffffffffffff16815260200190815260200160002060009054906101000a900460ff161515610b8457600080fd5b600073ffffffffffffffffffffffffffffffffffffffff168173ffffffffffffffffffffffffffffffffffffffff1614151515610bbd57fe5b806001808054809190600101610bd3919061137a565b815481101515610bdf57fe5b9060005260206000200160006101000a81548173ffffffffffffffffffffffffffffffffffffffff021916908373ffffffffffffffffffffffffffffffffffffffff16021790555060016000808373ffffffffffffffffffffffffffffffffffffffff1673ffffffffffffffffffffffffffffffffffffffff16815260200190815260200160002060006101000a81548160ff02191690831515021790555050565b600360205281600052604060002081815481101515610c9c57fe5b906000526020600020906006020160009150915050806000015490806001015490806002015490806003015490806004015490806005018054600181600116156101000203166002900480601f016020809104026020016040519081016040528092919081815260200182805460018160011615610100020316600290048015610d675780601f10610d3c57610100808354040283529160200191610d67565b820191906000526020600020905b815481529060010190602001808311610d4a57829003601f168201915b5050505050905086565b6000803373ffffffffffffffffffffffffffffffffffffffff1673ffffffffffffffffffffffffffffffffffffffff16815260200190815260200160002060009054906101000a900460ff161515610dc857600080fd5b6000600360008373ffffffffffffffffffffffffffffffffffffffff1673ffffffffffffffffffffffffffffffffffffffff16815260200190815260200160002080549050111515610e7f57806002808054809190600101610e2a919061137a565b815481101515610e3657fe5b9060005260206000200160006101000a81548173ffffffffffffffffffffffffffffffffffffffff021916908373ffffffffffffffffffffffffffffffffffffffff1602179055505b600360008273ffffffffffffffffffffffffffffffffffffffff1673ffffffffffffffffffffffffffffffffffffffff16815260200190815260200160002060c060405190810160405280878152602001858152602001868152602001848152602001428152602001602060405190810160405280600081525081525090806001815401808255809150509060018203906000526020600020906006020160009091929091909150600082015181600001556020820151816001015560408201518160020155606082015181600301556080820151816004015560a0820151816005019080519060200190610f759291906113a6565b505050505050505050565b6000803373ffffffffffffffffffffffffffffffffffffffff1673ffffffffffffffffffffffffffffffffffffffff16815260200190815260200160002060009054906101000a900460ff161515610fd757600080fd5b80600460006101000a81548160ff02191690831515021790555050565b6060600280548060200260200160405190810160405280929190818152602001828054801561107857602002820191906000526020600020905b8160009054906101000a900473ffffffffffffffffffffffffffffffffffffffff1673ffffffffffffffffffffffffffffffffffffffff168152602001906001019080831161102e575b5050505050905090565b60006020528060005260406000206000915054906101000a900460ff1681565b6000600460009054906101000a900460ff1615156110bf57600080fd5b6005546110cd8685036104e3565b6110d88887036104e3565b020290508034101515156110e857fe5b600460019054906101000a900473ffffffffffffffffffffffffffffffffffffffff1673ffffffffffffffffffffffffffffffffffffffff166108fc349081150290604051600060405180830381858888f19350505050158015611150573d6000803e3d6000fd5b506000600360003373ffffffffffffffffffffffffffffffffffffffff1673ffffffffffffffffffffffffffffffffffffffff16815260200190815260200160002080549050111515611208573360028080548091906001016111b3919061137a565b8154811015156111bf57fe5b9060005260206000200160006101000a81548173ffffffffffffffffffffffffffffffffffffffff021916908373ffffffffffffffffffffffffffffffffffffffff1602179055505b600360003373ffffffffffffffffffffffffffffffffffffffff1673ffffffffffffffffffffffffffffffffffffffff16815260200190815260200160002060c0604051908101604052808881526020018681526020018781526020018581526020014281526020018481525090806001815401808255809150509060018203906000526020600020906006020160009091929091909150600082015181600001556020820151816001015560408201518160020155606082015181600301556080820151816004015560a08201518160050190805190602001906112ee9291906113a6565b50505050505050505050565b828054600181600116156101000203166002900490600052602060002090601f016020900481019282601f1061133b57805160ff1916838001178555611369565b82800160010185558215611369579182015b8281111561136857825182559160200191906001019061134d565b5b5090506113769190611426565b5090565b8154818355818111156113a1578183600052602060002091820191016113a09190611426565b5b505050565b828054600181600116156101000203166002900490600052602060002090601f016020900481019282601f106113e757805160ff1916838001178555611415565b82800160010185558215611415579182015b828111156114145782518255916020019190600101906113f9565b5b5090506114229190611426565b5090565b61144891905b8082111561144457600081600090555060010161142c565b5090565b90565b60006114578235611b83565b905092915050565b600061146b8235611ba3565b905092915050565b600061147f8235611baf565b905092915050565b600082601f830112151561149a57600080fd5b81356114ad6114a882611ab7565b611a8a565b915080825260208301602083018583830111156114c957600080fd5b6114d4838284611bc3565b50505092915050565b60006114e98235611bb9565b905092915050565b60006020828403121561150357600080fd5b60006115118482850161144b565b91505092915050565b6000806040838503121561152d57600080fd5b600061153b8582860161144b565b925050602061154c858286016114dd565b9150509250929050565b60006020828403121561156857600080fd5b60006115768482850161145f565b91505092915050565b60006020828403121561159157600080fd5b600061159f84828501611473565b91505092915050565b600080600080600060a086880312156115c057600080fd5b60006115ce88828901611473565b95505060206115df88828901611473565b94505060406115f088828901611473565b935050606061160188828901611473565b92505060806116128882890161144b565b9150509295509295909350565b600080600080600060a0868803121561163757600080fd5b600061164588828901611473565b955050602061165688828901611473565b945050604061166788828901611473565b935050606061167888828901611473565b925050608086013567ffffffffffffffff81111561169557600080fd5b6116a188828901611487565b9150509295509295909350565b600080604083850312156116c157600080fd5b600083013567ffffffffffffffff8111156116db57600080fd5b6116e785828601611487565b92505060206116f8858286016114dd565b9150509250929050565b60006020828403121561171457600080fd5b6000611722848285016114dd565b91505092915050565b61173481611b43565b82525050565b600061174582611afd565b80845260208401935061175783611ae3565b60005b828110156117895761176d86835161172b565b61177682611b29565b915060208601955060018101905061175a565b50849250505092915050565b60006117a082611b08565b808452602084019350836020820285016117b985611af0565b60005b848110156117f25783830388526117d483835161188d565b92506117df82611b36565b91506020880197506001810190506117bc565b508196508694505050505092915050565b61180c81611b63565b82525050565b61181b81611b6f565b82525050565b600061182c82611b1e565b808452611840816020860160208601611bd2565b61184981611c05565b602085010191505092915050565b600061186282611b13565b808452611876816020860160208601611bd2565b61187f81611c05565b602085010191505092915050565b600060c0830160008301516118a56000860182611812565b5060208301516118b86020860182611812565b5060408301516118cb6040860182611812565b5060608301516118de6060860182611812565b5060808301516118f16080860182611916565b5060a083015184820360a08601526119098282611857565b9150508091505092915050565b61191f81611b79565b82525050565b600060208201905061193a600083018461172b565b92915050565b6000602082019050818103600083015261195a818461173a565b905092915050565b6000602082019050818103600083015261197c8184611795565b905092915050565b60006020820190506119996000830184611803565b92915050565b600060c0820190506119b46000830189611812565b6119c16020830188611812565b6119ce6040830187611812565b6119db6060830186611812565b6119e86080830185611916565b81810360a08301526119fa8184611857565b9050979650505050505050565b600060c082019050611a1c6000830189611812565b611a296020830188611812565b611a366040830187611812565b611a436060830186611812565b611a506080830185611916565b81810360a0830152611a628184611821565b9050979650505050505050565b6000602082019050611a846000830184611916565b92915050565b6000604051905081810181811067ffffffffffffffff82111715611aad57600080fd5b8060405250919050565b600067ffffffffffffffff821115611ace57600080fd5b601f19601f8301169050602081019050919050565b6000602082019050919050565b6000602082019050919050565b600081519050919050565b600081519050919050565b600081519050919050565b600081519050919050565b6000602082019050919050565b6000602082019050919050565b600073ffffffffffffffffffffffffffffffffffffffff82169050919050565b60008115159050919050565b6000819050919050565b6000819050919050565b600073ffffffffffffffffffffffffffffffffffffffff82169050919050565b60008115159050919050565b6000819050919050565b6000819050919050565b82818337600083830152505050565b60005b83811015611bf0578082015181840152602081019050611bd5565b83811115611bff576000848401525b50505050565b6000601f19601f83011690509190505600a265627a7a723058208a4a7a27f202d3fb736516a2f3df5c259dcc3325f335e217df77f16593210c216c6578706572696d656e74616cf50037",
  "source": "pragma solidity ^0.4.25;\npragma experimental ABIEncoderV2;\n\nimport 'zeppelin-solidity/contracts/math/SafeMath.sol';\n\n/**\n * @title Utopia\n * @author Reza Bakhshandeh <reza[dot]bakhshandeh[at]gmail[dot]com>\n */\ncontract Utopia{\n    using SafeMath for uint256;\n\n    struct Land{\n        int256 x1;\n        int256 x2;\n        int256 y1;\n        int256 y2;\n        uint256 time;\n        string hash;\n    }\n\n    // admins\n    mapping(address => bool) public adminsMap;\n    address[] public admins;\n\n    address[] public owners;\n    mapping(address => Land[]) public lands;\n\n    bool public allowPublicAssign = true;\n\n    address public fundsWallet = 0x38e41787d3F428Fad17CfD5470C4cFC4c0Ee3738;\n\n    uint256 public unitLandPrice = 0.0001 ether;\n\n    constructor(){\n        admins[admins.length++] = msg.sender;\n        adminsMap[msg.sender] = true;\n    }\n\n    modifier isPublic(){\n        require(allowPublicAssign);\n        _;\n    }\n\n    modifier isAdmin(){\n        require(adminsMap[msg.sender]);\n        _;\n    }\n\n    function getOwners() view public returns (address[]) {\n        return owners;\n    }\n\n    \n    function getLands(address owner) view public returns (Land[]) {\n        return lands[owner];\n    }\n\n    function getLand(address owner, uint256 index) \n    view public returns (\n        int256 x1,\n        int256 y1,\n        int256 x2,\n        int256 y2,\n        uint256 time, string hash) {\n        if(lands[owner].length <= index){\n            return;\n        }\n        x1 = lands[owner][index].x1;\n        x2 = lands[owner][index].x2;\n        y1 = lands[owner][index].y1;\n        y2 = lands[owner][index].y2;\n        time = lands[owner][index].time;\n        hash = lands[owner][index].hash;\n    }\n\n\n    function assignLand(int256 x1, \n        int256 y1, int256 x2, int256 y2, string hash)\n                isPublic public payable{\n\n        uint256 cost = abs(x2-x1) * abs(y2-y1) * unitLandPrice;\n        assert(msg.value >= cost);\n\n        fundsWallet.transfer(msg.value);\n\n        if(!(lands[msg.sender].length > 0)){\n            owners[owners.length++] = msg.sender;\n        }\n        lands[msg.sender].push(Land(\n            x1,\n            x2,\n            y1,\n            y2,\n            now,\n            hash\n        ));\n    }\n\n    function adminAssignLand(int256 x1, \n        int256 y1, int256 x2, int256 y2, address addr) isAdmin{\n        if(!(lands[addr].length > 0)){\n            owners[owners.length++] = addr;\n        }\n\n        lands[addr].push(Land(\n            x1,\n            x2,\n            y1,\n            y2,\n            now,\n            \"\"\n        ));\n    }\n\n    function adminSetIsPublic(bool val) isAdmin{\n        allowPublicAssign = val;\n    }\n\n    function adminSetUnitLandPrice(uint256 price) isAdmin{\n        unitLandPrice = price;\n    }\n\n    function addAdmin(address addr) isAdmin{\n        assert(addr != address(0));\n        admins[admins.length++] = addr;\n        adminsMap[addr] = true;\n    }\n\n    function updateLand(string hash, uint256 index) returns (bool){\n        if(lands[msg.sender].length <= index){\n            return false;\n        }\n        lands[msg.sender][index].hash = hash;\n        return true;\n    }\n\n    function abs(int256 x) view public returns (uint256) {\n        return uint256(x > 0 ? x : -1*x);\n    }\n}\n",
  "sourcePath": "/home/projects/projects/utopia_smart_contracts/contracts/Utopia.sol",
  "compiler": {
    "name": "solc",
    "version": "0.4.25+commit.59dbf8f1.Emscripten.clang"
  },
  "schemaVersion": "2.0.2",
  "updatedAt": "2020-05-19T20:39:36.409Z"
}