{
  "contractName": "Utopia",
  "abi": [
    {
      "constant": true,
      "inputs": [
        {
          "name": "",
          "type": "uint256"
        }
      ],
      "name": "admins",
      "outputs": [
        {
          "name": "",
          "type": "address"
        }
      ],
      "payable": false,
      "stateMutability": "view",
      "type": "function"
    },
    {
      "constant": true,
      "inputs": [
        {
          "name": "",
          "type": "uint256"
        }
      ],
      "name": "onwers",
      "outputs": [
        {
          "name": "",
          "type": "address"
        }
      ],
      "payable": false,
      "stateMutability": "view",
      "type": "function"
    },
    {
      "inputs": [],
      "payable": false,
      "stateMutability": "nonpayable",
      "type": "constructor"
    },
    {
      "constant": true,
      "inputs": [],
      "name": "getOwners",
      "outputs": [
        {
          "name": "",
          "type": "address[]"
        }
      ],
      "payable": false,
      "stateMutability": "view",
      "type": "function"
    },
    {
      "constant": true,
      "inputs": [
        {
          "name": "onwer",
          "type": "address"
        }
      ],
      "name": "getLands",
      "outputs": [
        {
          "components": [
            {
              "name": "x1",
              "type": "uint256"
            },
            {
              "name": "x2",
              "type": "uint256"
            },
            {
              "name": "y1",
              "type": "uint256"
            },
            {
              "name": "y2",
              "type": "uint256"
            },
            {
              "name": "time",
              "type": "uint256"
            },
            {
              "name": "hash",
              "type": "string"
            }
          ],
          "name": "",
          "type": "tuple[]"
        }
      ],
      "payable": false,
      "stateMutability": "view",
      "type": "function"
    },
    {
      "constant": false,
      "inputs": [
        {
          "name": "x1",
          "type": "uint256"
        },
        {
          "name": "y1",
          "type": "uint256"
        },
        {
          "name": "x2",
          "type": "uint256"
        },
        {
          "name": "y2",
          "type": "uint256"
        }
      ],
      "name": "assignLand",
      "outputs": [],
      "payable": false,
      "stateMutability": "nonpayable",
      "type": "function"
    }
  ],
  "bytecode": "0x608060405234801561001057600080fd5b503360008080548091906001016100279190610080565b81548110151561003357fe5b9060005260206000200160006101000a81548173ffffffffffffffffffffffffffffffffffffffff021916908373ffffffffffffffffffffffffffffffffffffffff1602179055506100d1565b8154818355818111156100a7578183600052602060002091820191016100a691906100ac565b5b505050565b6100ce91905b808211156100ca5760008160009055506001016100b2565b5090565b90565b610a8b806100e06000396000f30060806040526004361061006d576000357c0100000000000000000000000000000000000000000000000000000000900463ffffffff16806314bfd6d014610072578063254c44f5146100af578063a0e67e2b146100ec578063a49cc25d14610117578063f214eb6714610154575b600080fd5b34801561007e57600080fd5b50610099600480360361009491908101906106d3565b61017d565b6040516100a69190610905565b60405180910390f35b3480156100bb57600080fd5b506100d660048036036100d191908101906106aa565b6101bb565b6040516100e39190610942565b60405180910390f35b3480156100f857600080fd5b5061010161032e565b60405161010e9190610920565b60405180910390f35b34801561012357600080fd5b5061013e600480360361013991908101906106d3565b6103bc565b60405161014b9190610905565b60405180910390f35b34801561016057600080fd5b5061017b600480360361017691908101906106fc565b6103fa565b005b60008181548110151561018c57fe5b906000526020600020016000915054906101000a900473ffffffffffffffffffffffffffffffffffffffff1681565b6060600260008373ffffffffffffffffffffffffffffffffffffffff1673ffffffffffffffffffffffffffffffffffffffff168152602001908152602001600020805480602002602001604051908101604052809291908181526020016000905b82821015610323578382906000526020600020906006020160c060405190810160405290816000820154815260200160018201548152602001600282015481526020016003820154815260200160048201548152602001600582018054600181600116156101000203166002900480601f01602080910402602001604051908101604052809291908181526020018280546001816001161561010002031660029004801561030b5780601f106102e05761010080835404028352916020019161030b565b820191906000526020600020905b8154815290600101906020018083116102ee57829003601f168201915b5050505050815250508152602001906001019061021c565b505050509050919050565b606060018054806020026020016040519081016040528092919081815260200182805480156103b257602002820191906000526020600020905b8160009054906101000a900473ffffffffffffffffffffffffffffffffffffffff1673ffffffffffffffffffffffffffffffffffffffff1681526020019060010190808311610368575b5050505050905090565b6001818154811015156103cb57fe5b906000526020600020016000915054906101000a900473ffffffffffffffffffffffffffffffffffffffff1681565b6000600260003373ffffffffffffffffffffffffffffffffffffffff1673ffffffffffffffffffffffffffffffffffffffff168152602001908152602001600020805490501115156104b15733600180805480919060010161045c91906105b1565b81548110151561046857fe5b9060005260206000200160006101000a81548173ffffffffffffffffffffffffffffffffffffffff021916908373ffffffffffffffffffffffffffffffffffffffff1602179055505b600260003373ffffffffffffffffffffffffffffffffffffffff1673ffffffffffffffffffffffffffffffffffffffff16815260200190815260200160002060c060405190810160405280868152602001848152602001858152602001838152602001428152602001602060405190810160405280600081525081525090806001815401808255809150509060018203906000526020600020906006020160009091929091909150600082015181600001556020820151816001015560408201518160020155606082015181600301556080820151816004015560a08201518160050190805190602001906105a79291906105dd565b5050505050505050565b8154818355818111156105d8578183600052602060002091820191016105d7919061065d565b5b505050565b828054600181600116156101000203166002900490600052602060002090601f016020900481019282601f1061061e57805160ff191683800117855561064c565b8280016001018555821561064c579182015b8281111561064b578251825591602001919060010190610630565b5b509050610659919061065d565b5090565b61067f91905b8082111561067b576000816000905550600101610663565b5090565b90565b600061068e82356109e3565b905092915050565b60006106a28235610a03565b905092915050565b6000602082840312156106bc57600080fd5b60006106ca84828501610682565b91505092915050565b6000602082840312156106e557600080fd5b60006106f384828501610696565b91505092915050565b6000806000806080858703121561071257600080fd5b600061072087828801610696565b945050602061073187828801610696565b935050604061074287828801610696565b925050606061075387828801610696565b91505092959194509250565b610768816109b9565b82525050565b60006107798261097e565b80845260208401935061078b83610964565b60005b828110156107bd576107a186835161075f565b6107aa8261099f565b915060208601955060018101905061078e565b50849250505092915050565b60006107d482610989565b808452602084019350836020820285016107ed85610971565b60005b8481101561082657838303885261080883835161086d565b9250610813826109ac565b91506020880197506001810190506107f0565b508196508694505050505092915050565b600061084282610994565b808452610856816020860160208601610a0d565b61085f81610a40565b602085010191505092915050565b600060c08301600083015161088560008601826108f6565b50602083015161089860208601826108f6565b5060408301516108ab60408601826108f6565b5060608301516108be60608601826108f6565b5060808301516108d160808601826108f6565b5060a083015184820360a08601526108e98282610837565b9150508091505092915050565b6108ff816109d9565b82525050565b600060208201905061091a600083018461075f565b92915050565b6000602082019050818103600083015261093a818461076e565b905092915050565b6000602082019050818103600083015261095c81846107c9565b905092915050565b6000602082019050919050565b6000602082019050919050565b600081519050919050565b600081519050919050565b600081519050919050565b6000602082019050919050565b6000602082019050919050565b600073ffffffffffffffffffffffffffffffffffffffff82169050919050565b6000819050919050565b600073ffffffffffffffffffffffffffffffffffffffff82169050919050565b6000819050919050565b60005b83811015610a2b578082015181840152602081019050610a10565b83811115610a3a576000848401525b50505050565b6000601f19601f83011690509190505600a265627a7a72305820733d95ef7042750ad57b681504bdbff89f1c8ee543d0d12c3166f2207783b78c6c6578706572696d656e74616cf50037",
  "source": "pragma solidity ^0.4.25;\npragma experimental ABIEncoderV2;\n\nimport 'zeppelin-solidity/contracts/math/SafeMath.sol';\n\n/**\n * @title Utopia\n * @author Reza Bakhshandeh <reza[dot]bakhshandeh[at]gmail[dot]com>\n */\ncontract Utopia{\n    using SafeMath for uint256;\n\n    struct Land{\n        uint256 x1;\n        uint256 x2;\n        uint256 y1;\n        uint256 y2;\n        uint256 time;\n        string hash;\n    }\n\n    // admins\n    address[] public admins;\n\n    address[] public onwers;\n    mapping(address => Land[]) lands;\n\n    constructor(){\n        admins[admins.length++] = msg.sender;\n    }\n\n    function getOwners() view public returns (address[]) {\n        return onwers;\n    }\n\n    function getLands(address onwer) view public returns (Land[]) {\n        return lands[onwer];\n    }\n\n    function assignLand(uint256 x1, \n        uint256 y1, uint256 x2, uint256 y2){\n        if(!(lands[msg.sender].length > 0)){\n            onwers[onwers.length++] = msg.sender;\n        }\n        lands[msg.sender].push(Land(\n            x1,\n            x2,\n            y1,\n            y2,\n            now,\n            \"\"\n        ));\n    }\n}\n",
  "sourcePath": "/home/projects/projects/utopia_smart_contracts/contracts/Utopia.sol",
  "compiler": {
    "name": "solc",
    "version": "0.4.25+commit.59dbf8f1.Emscripten.clang"
  },
  "schemaVersion": "2.0.2",
  "updatedAt": "2019-12-08T09:35:40.156Z"
}