{
  "contractName": "Utopia",
  "abi": [
    {
      "constant": true,
      "inputs": [
        {
          "name": "",
          "type": "uint256"
        }
      ],
      "name": "admins",
      "outputs": [
        {
          "name": "",
          "type": "address"
        }
      ],
      "payable": false,
      "stateMutability": "view",
      "type": "function"
    },
    {
      "constant": true,
      "inputs": [
        {
          "name": "",
          "type": "uint256"
        }
      ],
      "name": "onwers",
      "outputs": [
        {
          "name": "",
          "type": "address"
        }
      ],
      "payable": false,
      "stateMutability": "view",
      "type": "function"
    },
    {
      "inputs": [],
      "payable": false,
      "stateMutability": "nonpayable",
      "type": "constructor"
    },
    {
      "constant": true,
      "inputs": [],
      "name": "getOwners",
      "outputs": [
        {
          "name": "",
          "type": "address[]"
        }
      ],
      "payable": false,
      "stateMutability": "view",
      "type": "function"
    },
    {
      "constant": true,
      "inputs": [
        {
          "name": "onwer",
          "type": "address"
        }
      ],
      "name": "getLands",
      "outputs": [
        {
          "components": [
            {
              "name": "x1",
              "type": "uint256"
            },
            {
              "name": "x2",
              "type": "uint256"
            },
            {
              "name": "y1",
              "type": "uint256"
            },
            {
              "name": "y2",
              "type": "uint256"
            },
            {
              "name": "time",
              "type": "uint256"
            },
            {
              "name": "hash",
              "type": "string"
            }
          ],
          "name": "",
          "type": "tuple[]"
        }
      ],
      "payable": false,
      "stateMutability": "view",
      "type": "function"
    },
    {
      "constant": true,
      "inputs": [
        {
          "name": "onwer",
          "type": "address"
        },
        {
          "name": "index",
          "type": "uint256"
        }
      ],
      "name": "getLand",
      "outputs": [
        {
          "name": "x1",
          "type": "uint256"
        },
        {
          "name": "y1",
          "type": "uint256"
        },
        {
          "name": "x2",
          "type": "uint256"
        },
        {
          "name": "y2",
          "type": "uint256"
        },
        {
          "name": "time",
          "type": "uint256"
        },
        {
          "name": "hash",
          "type": "string"
        }
      ],
      "payable": false,
      "stateMutability": "view",
      "type": "function"
    },
    {
      "constant": false,
      "inputs": [
        {
          "name": "x1",
          "type": "uint256"
        },
        {
          "name": "y1",
          "type": "uint256"
        },
        {
          "name": "x2",
          "type": "uint256"
        },
        {
          "name": "y2",
          "type": "uint256"
        }
      ],
      "name": "assignLand",
      "outputs": [],
      "payable": false,
      "stateMutability": "nonpayable",
      "type": "function"
    },
    {
      "constant": false,
      "inputs": [
        {
          "name": "hash",
          "type": "string"
        },
        {
          "name": "index",
          "type": "uint256"
        }
      ],
      "name": "updateLand",
      "outputs": [
        {
          "name": "",
          "type": "bool"
        }
      ],
      "payable": false,
      "stateMutability": "nonpayable",
      "type": "function"
    }
  ],
  "bytecode": "0x608060405234801561001057600080fd5b503360008080548091906001016100279190610080565b81548110151561003357fe5b9060005260206000200160006101000a81548173ffffffffffffffffffffffffffffffffffffffff021916908373ffffffffffffffffffffffffffffffffffffffff1602179055506100d1565b8154818355818111156100a7578183600052602060002091820191016100a691906100ac565b5b505050565b6100ce91905b808211156100ca5760008160009055506001016100b2565b5090565b90565b6111dd806100e06000396000f300608060405260043610610083576000357c0100000000000000000000000000000000000000000000000000000000900463ffffffff16806314bfd6d014610088578063254c44f5146100c557806365742555146101025780636fc58f1014610144578063a0e67e2b14610181578063a49cc25d146101ac578063f214eb67146101e9575b600080fd5b34801561009457600080fd5b506100af60048036036100aa9190810190610cde565b610212565b6040516100bc9190610f55565b60405180910390f35b3480156100d157600080fd5b506100ec60048036036100e79190810190610c25565b610250565b6040516100f99190610f92565b60405180910390f35b34801561010e57600080fd5b5061012960048036036101249190810190610c4e565b6103c3565b60405161013b96959493929190610fcf565b60405180910390f35b34801561015057600080fd5b5061016b60048036036101669190810190610c8a565b610700565b6040516101789190610fb4565b60405180910390f35b34801561018d57600080fd5b506101966107d3565b6040516101a39190610f70565b60405180910390f35b3480156101b857600080fd5b506101d360048036036101ce9190810190610cde565b610861565b6040516101e09190610f55565b60405180910390f35b3480156101f557600080fd5b50610210600480360361020b9190810190610d07565b61089f565b005b60008181548110151561022157fe5b906000526020600020016000915054906101000a900473ffffffffffffffffffffffffffffffffffffffff1681565b6060600260008373ffffffffffffffffffffffffffffffffffffffff1673ffffffffffffffffffffffffffffffffffffffff168152602001908152602001600020805480602002602001604051908101604052809291908181526020016000905b828210156103b8578382906000526020600020906006020160c060405190810160405290816000820154815260200160018201548152602001600282015481526020016003820154815260200160048201548152602001600582018054600181600116156101000203166002900480601f0160208091040260200160405190810160405280929190818152602001828054600181600116156101000203166002900480156103a05780601f10610375576101008083540402835291602001916103a0565b820191906000526020600020905b81548152906001019060200180831161038357829003601f168201915b505050505081525050815260200190600101906102b1565b505050509050919050565b6000806000806000606086600260008a73ffffffffffffffffffffffffffffffffffffffff1673ffffffffffffffffffffffffffffffffffffffff1681526020019081526020016000208054905011151561041d576106f6565b600260008973ffffffffffffffffffffffffffffffffffffffff1673ffffffffffffffffffffffffffffffffffffffff1681526020019081526020016000208781548110151561046957fe5b9060005260206000209060060201600001549550600260008973ffffffffffffffffffffffffffffffffffffffff1673ffffffffffffffffffffffffffffffffffffffff168152602001908152602001600020878154811015156104c957fe5b9060005260206000209060060201600101549350600260008973ffffffffffffffffffffffffffffffffffffffff1673ffffffffffffffffffffffffffffffffffffffff1681526020019081526020016000208781548110151561052957fe5b9060005260206000209060060201600201549450600260008973ffffffffffffffffffffffffffffffffffffffff1673ffffffffffffffffffffffffffffffffffffffff1681526020019081526020016000208781548110151561058957fe5b9060005260206000209060060201600301549250600260008973ffffffffffffffffffffffffffffffffffffffff1673ffffffffffffffffffffffffffffffffffffffff168152602001908152602001600020878154811015156105e957fe5b9060005260206000209060060201600401549150600260008973ffffffffffffffffffffffffffffffffffffffff1673ffffffffffffffffffffffffffffffffffffffff1681526020019081526020016000208781548110151561064957fe5b90600052602060002090600602016005018054600181600116156101000203166002900480601f0160208091040260200160405190810160405280929190818152602001828054600181600116156101000203166002900480156106ee5780601f106106c3576101008083540402835291602001916106ee565b820191906000526020600020905b8154815290600101906020018083116106d157829003601f168201915b505050505090505b9295509295509295565b600081600260003373ffffffffffffffffffffffffffffffffffffffff1673ffffffffffffffffffffffffffffffffffffffff1681526020019081526020016000208054905011151561075657600090506107cd565b82600260003373ffffffffffffffffffffffffffffffffffffffff1673ffffffffffffffffffffffffffffffffffffffff168152602001908152602001600020838154811015156107a357fe5b906000526020600020906006020160050190805190602001906107c7929190610a56565b50600190505b92915050565b6060600180548060200260200160405190810160405280929190818152602001828054801561085757602002820191906000526020600020905b8160009054906101000a900473ffffffffffffffffffffffffffffffffffffffff1673ffffffffffffffffffffffffffffffffffffffff168152602001906001019080831161080d575b5050505050905090565b60018181548110151561087057fe5b906000526020600020016000915054906101000a900473ffffffffffffffffffffffffffffffffffffffff1681565b6000600260003373ffffffffffffffffffffffffffffffffffffffff1673ffffffffffffffffffffffffffffffffffffffff16815260200190815260200160002080549050111515610956573360018080548091906001016109019190610ad6565b81548110151561090d57fe5b9060005260206000200160006101000a81548173ffffffffffffffffffffffffffffffffffffffff021916908373ffffffffffffffffffffffffffffffffffffffff1602179055505b600260003373ffffffffffffffffffffffffffffffffffffffff1673ffffffffffffffffffffffffffffffffffffffff16815260200190815260200160002060c060405190810160405280868152602001848152602001858152602001838152602001428152602001602060405190810160405280600081525081525090806001815401808255809150509060018203906000526020600020906006020160009091929091909150600082015181600001556020820151816001015560408201518160020155606082015181600301556080820151816004015560a0820151816005019080519060200190610a4c929190610b02565b5050505050505050565b828054600181600116156101000203166002900490600052602060002090601f016020900481019282601f10610a9757805160ff1916838001178555610ac5565b82800160010185558215610ac5579182015b82811115610ac4578251825591602001919060010190610aa9565b5b509050610ad29190610b82565b5090565b815481835581811115610afd57818360005260206000209182019101610afc9190610b82565b5b505050565b828054600181600116156101000203166002900490600052602060002090601f016020900481019282601f10610b4357805160ff1916838001178555610b71565b82800160010185558215610b71579182015b82811115610b70578251825591602001919060010190610b55565b5b509050610b7e9190610b82565b5090565b610ba491905b80821115610ba0576000816000905550600101610b88565b5090565b90565b6000610bb38235611126565b905092915050565b600082601f8301121515610bce57600080fd5b8135610be1610bdc82611064565b611037565b91508082526020830160208301858383011115610bfd57600080fd5b610c08838284611150565b50505092915050565b6000610c1d8235611146565b905092915050565b600060208284031215610c3757600080fd5b6000610c4584828501610ba7565b91505092915050565b60008060408385031215610c6157600080fd5b6000610c6f85828601610ba7565b9250506020610c8085828601610c11565b9150509250929050565b60008060408385031215610c9d57600080fd5b600083013567ffffffffffffffff811115610cb757600080fd5b610cc385828601610bbb565b9250506020610cd485828601610c11565b9150509250929050565b600060208284031215610cf057600080fd5b6000610cfe84828501610c11565b91505092915050565b60008060008060808587031215610d1d57600080fd5b6000610d2b87828801610c11565b9450506020610d3c87828801610c11565b9350506040610d4d87828801610c11565b9250506060610d5e87828801610c11565b91505092959194509250565b610d73816110f0565b82525050565b6000610d84826110aa565b808452602084019350610d9683611090565b60005b82811015610dc857610dac868351610d6a565b610db5826110d6565b9150602086019550600181019050610d99565b50849250505092915050565b6000610ddf826110b5565b80845260208401935083602082028501610df88561109d565b60005b84811015610e31578383038852610e13838351610ebd565b9250610e1e826110e3565b9150602088019750600181019050610dfb565b508196508694505050505092915050565b610e4b81611110565b82525050565b6000610e5c826110cb565b808452610e7081602086016020860161115f565b610e7981611192565b602085010191505092915050565b6000610e92826110c0565b808452610ea681602086016020860161115f565b610eaf81611192565b602085010191505092915050565b600060c083016000830151610ed56000860182610f46565b506020830151610ee86020860182610f46565b506040830151610efb6040860182610f46565b506060830151610f0e6060860182610f46565b506080830151610f216080860182610f46565b5060a083015184820360a0860152610f398282610e87565b9150508091505092915050565b610f4f8161111c565b82525050565b6000602082019050610f6a6000830184610d6a565b92915050565b60006020820190508181036000830152610f8a8184610d79565b905092915050565b60006020820190508181036000830152610fac8184610dd4565b905092915050565b6000602082019050610fc96000830184610e42565b92915050565b600060c082019050610fe46000830189610f46565b610ff16020830188610f46565b610ffe6040830187610f46565b61100b6060830186610f46565b6110186080830185610f46565b81810360a083015261102a8184610e51565b9050979650505050505050565b6000604051905081810181811067ffffffffffffffff8211171561105a57600080fd5b8060405250919050565b600067ffffffffffffffff82111561107b57600080fd5b601f19601f8301169050602081019050919050565b6000602082019050919050565b6000602082019050919050565b600081519050919050565b600081519050919050565b600081519050919050565b600081519050919050565b6000602082019050919050565b6000602082019050919050565b600073ffffffffffffffffffffffffffffffffffffffff82169050919050565b60008115159050919050565b6000819050919050565b600073ffffffffffffffffffffffffffffffffffffffff82169050919050565b6000819050919050565b82818337600083830152505050565b60005b8381101561117d578082015181840152602081019050611162565b8381111561118c576000848401525b50505050565b6000601f19601f83011690509190505600a265627a7a723058207bf8d340baa314acb9e071d7c6db236b281b96ac5a9b1cc39a63f5b2149ba20e6c6578706572696d656e74616cf50037",
  "source": "pragma solidity ^0.4.25;\npragma experimental ABIEncoderV2;\n\nimport 'zeppelin-solidity/contracts/math/SafeMath.sol';\n\n/**\n * @title Utopia\n * @author Reza Bakhshandeh <reza[dot]bakhshandeh[at]gmail[dot]com>\n */\ncontract Utopia{\n    using SafeMath for uint256;\n\n    struct Land{\n        uint256 x1;\n        uint256 x2;\n        uint256 y1;\n        uint256 y2;\n        uint256 time;\n        string hash;\n    }\n\n    // admins\n    address[] public admins;\n\n    address[] public onwers;\n    mapping(address => Land[]) lands;\n\n    constructor(){\n        admins[admins.length++] = msg.sender;\n    }\n\n    function getOwners() view public returns (address[]) {\n        return onwers;\n    }\n\n    \n    function getLands(address onwer) view public returns (Land[]) {\n        return lands[onwer];\n    }\n\n    function getLand(address onwer, uint256 index) \n    view public returns (\n        uint256 x1,\n        uint256 y1,\n        uint256 x2,\n        uint256 y2,\n        uint256 time, string hash) {\n        if(lands[onwer].length <= index){\n            return;\n        }\n        x1 = lands[onwer][index].x1;\n        x2 = lands[onwer][index].x2;\n        y1 = lands[onwer][index].y1;\n        y2 = lands[onwer][index].y2;\n        time = lands[onwer][index].time;\n        hash = lands[onwer][index].hash;\n    }\n\n    function assignLand(uint256 x1, \n        uint256 y1, uint256 x2, uint256 y2){\n        if(!(lands[msg.sender].length > 0)){\n            onwers[onwers.length++] = msg.sender;\n        }\n        lands[msg.sender].push(Land(\n            x1,\n            x2,\n            y1,\n            y2,\n            now,\n            \"\"\n        ));\n    }\n\n    function updateLand(string hash, uint256 index) returns (bool){\n        if(lands[msg.sender].length <= index){\n            return false;\n        }\n        lands[msg.sender][index].hash = hash;\n        return true;\n    }\n}\n",
  "sourcePath": "/home/projects/projects/utopia_smart_contracts/contracts/Utopia.sol",
  "compiler": {
    "name": "solc",
    "version": "0.4.25+commit.59dbf8f1.Emscripten.clang"
  },
  "schemaVersion": "2.0.2",
  "updatedAt": "2019-12-08T10:10:44.438Z"
}