{
  "contractName": "Utopia",
  "abi": [
    {
      "constant": true,
      "inputs": [
        {
          "name": "",
          "type": "uint256"
        }
      ],
      "name": "owners",
      "outputs": [
        {
          "name": "",
          "type": "address"
        }
      ],
      "payable": false,
      "stateMutability": "view",
      "type": "function"
    },
    {
      "constant": true,
      "inputs": [],
      "name": "allowPublicAssign",
      "outputs": [
        {
          "name": "",
          "type": "bool"
        }
      ],
      "payable": false,
      "stateMutability": "view",
      "type": "function"
    },
    {
      "constant": true,
      "inputs": [
        {
          "name": "",
          "type": "uint256"
        }
      ],
      "name": "admins",
      "outputs": [
        {
          "name": "",
          "type": "address"
        }
      ],
      "payable": false,
      "stateMutability": "view",
      "type": "function"
    },
    {
      "constant": true,
      "inputs": [],
      "name": "fundsWallet",
      "outputs": [
        {
          "name": "",
          "type": "address"
        }
      ],
      "payable": false,
      "stateMutability": "view",
      "type": "function"
    },
    {
      "constant": true,
      "inputs": [],
      "name": "unitLandPrice",
      "outputs": [
        {
          "name": "",
          "type": "uint256"
        }
      ],
      "payable": false,
      "stateMutability": "view",
      "type": "function"
    },
    {
      "constant": true,
      "inputs": [
        {
          "name": "",
          "type": "address"
        },
        {
          "name": "",
          "type": "uint256"
        }
      ],
      "name": "lands",
      "outputs": [
        {
          "name": "x1",
          "type": "int256"
        },
        {
          "name": "x2",
          "type": "int256"
        },
        {
          "name": "y1",
          "type": "int256"
        },
        {
          "name": "y2",
          "type": "int256"
        },
        {
          "name": "time",
          "type": "uint256"
        },
        {
          "name": "hash",
          "type": "string"
        }
      ],
      "payable": false,
      "stateMutability": "view",
      "type": "function"
    },
    {
      "constant": true,
      "inputs": [
        {
          "name": "",
          "type": "address"
        }
      ],
      "name": "adminsMap",
      "outputs": [
        {
          "name": "",
          "type": "bool"
        }
      ],
      "payable": false,
      "stateMutability": "view",
      "type": "function"
    },
    {
      "inputs": [],
      "payable": false,
      "stateMutability": "nonpayable",
      "type": "constructor"
    },
    {
      "constant": true,
      "inputs": [],
      "name": "getOwners",
      "outputs": [
        {
          "name": "",
          "type": "address[]"
        }
      ],
      "payable": false,
      "stateMutability": "view",
      "type": "function"
    },
    {
      "constant": true,
      "inputs": [
        {
          "name": "owner",
          "type": "address"
        }
      ],
      "name": "getLands",
      "outputs": [
        {
          "components": [
            {
              "name": "x1",
              "type": "int256"
            },
            {
              "name": "x2",
              "type": "int256"
            },
            {
              "name": "y1",
              "type": "int256"
            },
            {
              "name": "y2",
              "type": "int256"
            },
            {
              "name": "time",
              "type": "uint256"
            },
            {
              "name": "hash",
              "type": "string"
            }
          ],
          "name": "",
          "type": "tuple[]"
        }
      ],
      "payable": false,
      "stateMutability": "view",
      "type": "function"
    },
    {
      "constant": true,
      "inputs": [
        {
          "name": "owner",
          "type": "address"
        },
        {
          "name": "index",
          "type": "uint256"
        }
      ],
      "name": "getLand",
      "outputs": [
        {
          "name": "x1",
          "type": "int256"
        },
        {
          "name": "y1",
          "type": "int256"
        },
        {
          "name": "x2",
          "type": "int256"
        },
        {
          "name": "y2",
          "type": "int256"
        },
        {
          "name": "time",
          "type": "uint256"
        },
        {
          "name": "hash",
          "type": "string"
        }
      ],
      "payable": false,
      "stateMutability": "view",
      "type": "function"
    },
    {
      "constant": false,
      "inputs": [
        {
          "name": "x1",
          "type": "int256"
        },
        {
          "name": "y1",
          "type": "int256"
        },
        {
          "name": "x2",
          "type": "int256"
        },
        {
          "name": "y2",
          "type": "int256"
        },
        {
          "name": "hash",
          "type": "string"
        }
      ],
      "name": "assignLand",
      "outputs": [],
      "payable": true,
      "stateMutability": "payable",
      "type": "function"
    },
    {
      "constant": false,
      "inputs": [
        {
          "name": "x1",
          "type": "int256"
        },
        {
          "name": "y1",
          "type": "int256"
        },
        {
          "name": "x2",
          "type": "int256"
        },
        {
          "name": "y2",
          "type": "int256"
        },
        {
          "name": "addr",
          "type": "address"
        }
      ],
      "name": "adminAssignLand",
      "outputs": [],
      "payable": false,
      "stateMutability": "nonpayable",
      "type": "function"
    },
    {
      "constant": false,
      "inputs": [
        {
          "name": "val",
          "type": "bool"
        }
      ],
      "name": "adminSetIsPublic",
      "outputs": [],
      "payable": false,
      "stateMutability": "nonpayable",
      "type": "function"
    },
    {
      "constant": false,
      "inputs": [
        {
          "name": "price",
          "type": "uint256"
        }
      ],
      "name": "adminSetUnitLandPrice",
      "outputs": [],
      "payable": false,
      "stateMutability": "nonpayable",
      "type": "function"
    },
    {
      "constant": false,
      "inputs": [
        {
          "name": "addr",
          "type": "address"
        }
      ],
      "name": "addAdmin",
      "outputs": [],
      "payable": false,
      "stateMutability": "nonpayable",
      "type": "function"
    },
    {
      "constant": false,
      "inputs": [
        {
          "name": "hash",
          "type": "string"
        },
        {
          "name": "index",
          "type": "uint256"
        }
      ],
      "name": "updateLand",
      "outputs": [
        {
          "name": "",
          "type": "bool"
        }
      ],
      "payable": false,
      "stateMutability": "nonpayable",
      "type": "function"
    },
    {
      "constant": true,
      "inputs": [
        {
          "name": "x1",
          "type": "int256"
        },
        {
          "name": "y1",
          "type": "int256"
        },
        {
          "name": "x2",
          "type": "int256"
        },
        {
          "name": "y2",
          "type": "int256"
        }
      ],
      "name": "landPrice",
      "outputs": [
        {
          "name": "",
          "type": "uint256"
        }
      ],
      "payable": false,
      "stateMutability": "view",
      "type": "function"
    },
    {
      "constant": true,
      "inputs": [
        {
          "name": "x",
          "type": "int256"
        }
      ],
      "name": "abs",
      "outputs": [
        {
          "name": "",
          "type": "uint256"
        }
      ],
      "payable": false,
      "stateMutability": "view",
      "type": "function"
    }
  ],
  "bytecode": "0x60806040526001600460006101000a81548160ff0219169083151502179055507338e41787d3f428fad17cfd5470c4cfc4c0ee3738600460016101000a81548173ffffffffffffffffffffffffffffffffffffffff021916908373ffffffffffffffffffffffffffffffffffffffff160217905550655af3107a40006005553480156200008b57600080fd5b50336001808054809190600101620000a4919062000156565b815481101515620000b157fe5b9060005260206000200160006101000a81548173ffffffffffffffffffffffffffffffffffffffff021916908373ffffffffffffffffffffffffffffffffffffffff16021790555060016000803373ffffffffffffffffffffffffffffffffffffffff1673ffffffffffffffffffffffffffffffffffffffff16815260200190815260200160002060006101000a81548160ff021916908315150217905550620001ad565b81548183558181111562000180578183600052602060002091820191016200017f919062000185565b5b505050565b620001aa91905b80821115620001a65760008160009055506001016200018c565b5090565b90565b611d2280620001bd6000396000f3006080604052600436106100fc576000357c0100000000000000000000000000000000000000000000000000000000900463ffffffff168063025e7c27146101015780630824c9121461013e57806314bfd6d0146101695780631b5ac4b5146101a65780632194f3a2146101e3578063254c44f51461020e5780632ebf964f1461024b57806365742555146102745780636fb4971d146102b65780636fc58f10146102e1578063704802751461031e578063756efcf71461034757806379eca727146103895780638ee344cc146103b2578063a0e67e2b146103db578063e117849714610406578063e8542b0714610443578063ef323a9d14610480575b600080fd5b34801561010d57600080fd5b50610128600480360361012391908101906117d4565b61049c565b60405161013591906119f7565b60405180910390f35b34801561014a57600080fd5b506101536104da565b6040516101609190611a56565b60405180910390f35b34801561017557600080fd5b50610190600480360361018b91908101906117d4565b6104ed565b60405161019d91906119f7565b60405180910390f35b3480156101b257600080fd5b506101cd60048036036101c891908101906115ee565b61052b565b6040516101da9190611b41565b60405180910390f35b3480156101ef57600080fd5b506101f8610565565b60405161020591906119f7565b60405180910390f35b34801561021a57600080fd5b5061023560048036036102309190810190611560565b61058b565b6040516102429190611a34565b60405180910390f35b34801561025757600080fd5b50610272600480360361026d91908101906117d4565b6106fe565b005b34801561028057600080fd5b5061029b60048036036102969190810190611589565b61075f565b6040516102ad96959493929190611ad9565b60405180910390f35b3480156102c257600080fd5b506102cb610a9c565b6040516102d89190611b41565b60405180910390f35b3480156102ed57600080fd5b5061030860048036036103039190810190611780565b610aa2565b6040516103159190611a56565b60405180910390f35b34801561032a57600080fd5b5061034560048036036103409190810190611560565b610b75565b005b34801561035357600080fd5b5061036e60048036036103699190810190611589565b610cc9565b60405161038096959493929190611a71565b60405180910390f35b34801561039557600080fd5b506103b060048036036103ab919081019061167a565b610db9565b005b3480156103be57600080fd5b506103d960048036036103d491908101906115c5565b610fc8565b005b3480156103e757600080fd5b506103f061103c565b6040516103fd9190611a12565b60405180910390f35b34801561041257600080fd5b5061042d60048036036104289190810190611617565b6110ca565b60405161043a9190611b41565b60405180910390f35b34801561044f57600080fd5b5061046a60048036036104659190810190611560565b6110f1565b6040516104779190611a56565b60405180910390f35b61049a600480360361049591908101906116f1565b611111565b005b6002818154811015156104ab57fe5b906000526020600020016000915054906101000a900473ffffffffffffffffffffffffffffffffffffffff1681565b600460009054906101000a900460ff1681565b6001818154811015156104fc57fe5b906000526020600020016000915054906101000a900473ffffffffffffffffffffffffffffffffffffffff1681565b600080821361055c57817fffffffffffffffffffffffffffffffffffffffffffffffffffffffffffffffff0261055e565b815b9050919050565b600460019054906101000a900473ffffffffffffffffffffffffffffffffffffffff1681565b6060600360008373ffffffffffffffffffffffffffffffffffffffff1673ffffffffffffffffffffffffffffffffffffffff168152602001908152602001600020805480602002602001604051908101604052809291908181526020016000905b828210156106f3578382906000526020600020906006020160c060405190810160405290816000820154815260200160018201548152602001600282015481526020016003820154815260200160048201548152602001600582018054600181600116156101000203166002900480601f0160208091040260200160405190810160405280929190818152602001828054600181600116156101000203166002900480156106db5780601f106106b0576101008083540402835291602001916106db565b820191906000526020600020905b8154815290600101906020018083116106be57829003601f168201915b505050505081525050815260200190600101906105ec565b505050509050919050565b6000803373ffffffffffffffffffffffffffffffffffffffff1673ffffffffffffffffffffffffffffffffffffffff16815260200190815260200160002060009054906101000a900460ff16151561075557600080fd5b8060058190555050565b6000806000806000606086600360008a73ffffffffffffffffffffffffffffffffffffffff1673ffffffffffffffffffffffffffffffffffffffff168152602001908152602001600020805490501115156107b957610a92565b600360008973ffffffffffffffffffffffffffffffffffffffff1673ffffffffffffffffffffffffffffffffffffffff1681526020019081526020016000208781548110151561080557fe5b9060005260206000209060060201600001549550600360008973ffffffffffffffffffffffffffffffffffffffff1673ffffffffffffffffffffffffffffffffffffffff1681526020019081526020016000208781548110151561086557fe5b9060005260206000209060060201600101549350600360008973ffffffffffffffffffffffffffffffffffffffff1673ffffffffffffffffffffffffffffffffffffffff168152602001908152602001600020878154811015156108c557fe5b9060005260206000209060060201600201549450600360008973ffffffffffffffffffffffffffffffffffffffff1673ffffffffffffffffffffffffffffffffffffffff1681526020019081526020016000208781548110151561092557fe5b9060005260206000209060060201600301549250600360008973ffffffffffffffffffffffffffffffffffffffff1673ffffffffffffffffffffffffffffffffffffffff1681526020019081526020016000208781548110151561098557fe5b9060005260206000209060060201600401549150600360008973ffffffffffffffffffffffffffffffffffffffff1673ffffffffffffffffffffffffffffffffffffffff168152602001908152602001600020878154811015156109e557fe5b90600052602060002090600602016005018054600181600116156101000203166002900480601f016020809104026020016040519081016040528092919081815260200182805460018160011615610100020316600290048015610a8a5780601f10610a5f57610100808354040283529160200191610a8a565b820191906000526020600020905b815481529060010190602001808311610a6d57829003601f168201915b505050505090505b9295509295509295565b60055481565b600081600360003373ffffffffffffffffffffffffffffffffffffffff1673ffffffffffffffffffffffffffffffffffffffff16815260200190815260200160002080549050111515610af85760009050610b6f565b82600360003373ffffffffffffffffffffffffffffffffffffffff1673ffffffffffffffffffffffffffffffffffffffff16815260200190815260200160002083815481101515610b4557fe5b90600052602060002090600602016005019080519060200190610b69929190611369565b50600190505b92915050565b6000803373ffffffffffffffffffffffffffffffffffffffff1673ffffffffffffffffffffffffffffffffffffffff16815260200190815260200160002060009054906101000a900460ff161515610bcc57600080fd5b600073ffffffffffffffffffffffffffffffffffffffff168173ffffffffffffffffffffffffffffffffffffffff1614151515610c0557fe5b806001808054809190600101610c1b91906113e9565b815481101515610c2757fe5b9060005260206000200160006101000a81548173ffffffffffffffffffffffffffffffffffffffff021916908373ffffffffffffffffffffffffffffffffffffffff16021790555060016000808373ffffffffffffffffffffffffffffffffffffffff1673ffffffffffffffffffffffffffffffffffffffff16815260200190815260200160002060006101000a81548160ff02191690831515021790555050565b600360205281600052604060002081815481101515610ce457fe5b906000526020600020906006020160009150915050806000015490806001015490806002015490806003015490806004015490806005018054600181600116156101000203166002900480601f016020809104026020016040519081016040528092919081815260200182805460018160011615610100020316600290048015610daf5780601f10610d8457610100808354040283529160200191610daf565b820191906000526020600020905b815481529060010190602001808311610d9257829003601f168201915b5050505050905086565b6000803373ffffffffffffffffffffffffffffffffffffffff1673ffffffffffffffffffffffffffffffffffffffff16815260200190815260200160002060009054906101000a900460ff161515610e1057600080fd5b6000600360008373ffffffffffffffffffffffffffffffffffffffff1673ffffffffffffffffffffffffffffffffffffffff16815260200190815260200160002080549050111515610ec757806002808054809190600101610e7291906113e9565b815481101515610e7e57fe5b9060005260206000200160006101000a81548173ffffffffffffffffffffffffffffffffffffffff021916908373ffffffffffffffffffffffffffffffffffffffff1602179055505b600360008273ffffffffffffffffffffffffffffffffffffffff1673ffffffffffffffffffffffffffffffffffffffff16815260200190815260200160002060c060405190810160405280878152602001858152602001868152602001848152602001428152602001602060405190810160405280600081525081525090806001815401808255809150509060018203906000526020600020906006020160009091929091909150600082015181600001556020820151816001015560408201518160020155606082015181600301556080820151816004015560a0820151816005019080519060200190610fbd929190611415565b505050505050505050565b6000803373ffffffffffffffffffffffffffffffffffffffff1673ffffffffffffffffffffffffffffffffffffffff16815260200190815260200160002060009054906101000a900460ff16151561101f57600080fd5b80600460006101000a81548160ff02191690831515021790555050565b606060028054806020026020016040519081016040528092919081815260200182805480156110c057602002820191906000526020600020905b8160009054906101000a900473ffffffffffffffffffffffffffffffffffffffff1673ffffffffffffffffffffffffffffffffffffffff1681526020019060010190808311611076575b5050505050905090565b60006005546110da85840361052b565b6110e587860361052b565b02029050949350505050565b60006020528060005260406000206000915054906101000a900460ff1681565b6000600460009054906101000a900460ff16151561112e57600080fd5b60055461113c86850361052b565b61114788870361052b565b0202905080341015151561115757fe5b600460019054906101000a900473ffffffffffffffffffffffffffffffffffffffff1673ffffffffffffffffffffffffffffffffffffffff166108fc349081150290604051600060405180830381858888f193505050501580156111bf573d6000803e3d6000fd5b506000600360003373ffffffffffffffffffffffffffffffffffffffff1673ffffffffffffffffffffffffffffffffffffffff168152602001908152602001600020805490501115156112775733600280805480919060010161122291906113e9565b81548110151561122e57fe5b9060005260206000200160006101000a81548173ffffffffffffffffffffffffffffffffffffffff021916908373ffffffffffffffffffffffffffffffffffffffff1602179055505b600360003373ffffffffffffffffffffffffffffffffffffffff1673ffffffffffffffffffffffffffffffffffffffff16815260200190815260200160002060c0604051908101604052808881526020018681526020018781526020018581526020014281526020018481525090806001815401808255809150509060018203906000526020600020906006020160009091929091909150600082015181600001556020820151816001015560408201518160020155606082015181600301556080820151816004015560a082015181600501908051906020019061135d929190611415565b50505050505050505050565b828054600181600116156101000203166002900490600052602060002090601f016020900481019282601f106113aa57805160ff19168380011785556113d8565b828001600101855582156113d8579182015b828111156113d75782518255916020019190600101906113bc565b5b5090506113e59190611495565b5090565b8154818355818111156114105781836000526020600020918201910161140f9190611495565b5b505050565b828054600181600116156101000203166002900490600052602060002090601f016020900481019282601f1061145657805160ff1916838001178555611484565b82800160010185558215611484579182015b82811115611483578251825591602001919060010190611468565b5b5090506114919190611495565b5090565b6114b791905b808211156114b357600081600090555060010161149b565b5090565b90565b60006114c68235611c55565b905092915050565b60006114da8235611c75565b905092915050565b60006114ee8235611c81565b905092915050565b600082601f830112151561150957600080fd5b813561151c61151782611b89565b611b5c565b9150808252602083016020830185838301111561153857600080fd5b611543838284611c95565b50505092915050565b60006115588235611c8b565b905092915050565b60006020828403121561157257600080fd5b6000611580848285016114ba565b91505092915050565b6000806040838503121561159c57600080fd5b60006115aa858286016114ba565b92505060206115bb8582860161154c565b9150509250929050565b6000602082840312156115d757600080fd5b60006115e5848285016114ce565b91505092915050565b60006020828403121561160057600080fd5b600061160e848285016114e2565b91505092915050565b6000806000806080858703121561162d57600080fd5b600061163b878288016114e2565b945050602061164c878288016114e2565b935050604061165d878288016114e2565b925050606061166e878288016114e2565b91505092959194509250565b600080600080600060a0868803121561169257600080fd5b60006116a0888289016114e2565b95505060206116b1888289016114e2565b94505060406116c2888289016114e2565b93505060606116d3888289016114e2565b92505060806116e4888289016114ba565b9150509295509295909350565b600080600080600060a0868803121561170957600080fd5b6000611717888289016114e2565b9550506020611728888289016114e2565b9450506040611739888289016114e2565b935050606061174a888289016114e2565b925050608086013567ffffffffffffffff81111561176757600080fd5b611773888289016114f6565b9150509295509295909350565b6000806040838503121561179357600080fd5b600083013567ffffffffffffffff8111156117ad57600080fd5b6117b9858286016114f6565b92505060206117ca8582860161154c565b9150509250929050565b6000602082840312156117e657600080fd5b60006117f48482850161154c565b91505092915050565b61180681611c15565b82525050565b600061181782611bcf565b80845260208401935061182983611bb5565b60005b8281101561185b5761183f8683516117fd565b61184882611bfb565b915060208601955060018101905061182c565b50849250505092915050565b600061187282611bda565b8084526020840193508360208202850161188b85611bc2565b60005b848110156118c45783830388526118a683835161195f565b92506118b182611c08565b915060208801975060018101905061188e565b508196508694505050505092915050565b6118de81611c35565b82525050565b6118ed81611c41565b82525050565b60006118fe82611bf0565b808452611912816020860160208601611ca4565b61191b81611cd7565b602085010191505092915050565b600061193482611be5565b808452611948816020860160208601611ca4565b61195181611cd7565b602085010191505092915050565b600060c08301600083015161197760008601826118e4565b50602083015161198a60208601826118e4565b50604083015161199d60408601826118e4565b5060608301516119b060608601826118e4565b5060808301516119c360808601826119e8565b5060a083015184820360a08601526119db8282611929565b9150508091505092915050565b6119f181611c4b565b82525050565b6000602082019050611a0c60008301846117fd565b92915050565b60006020820190508181036000830152611a2c818461180c565b905092915050565b60006020820190508181036000830152611a4e8184611867565b905092915050565b6000602082019050611a6b60008301846118d5565b92915050565b600060c082019050611a8660008301896118e4565b611a9360208301886118e4565b611aa060408301876118e4565b611aad60608301866118e4565b611aba60808301856119e8565b81810360a0830152611acc8184611929565b9050979650505050505050565b600060c082019050611aee60008301896118e4565b611afb60208301886118e4565b611b0860408301876118e4565b611b1560608301866118e4565b611b2260808301856119e8565b81810360a0830152611b3481846118f3565b9050979650505050505050565b6000602082019050611b5660008301846119e8565b92915050565b6000604051905081810181811067ffffffffffffffff82111715611b7f57600080fd5b8060405250919050565b600067ffffffffffffffff821115611ba057600080fd5b601f19601f8301169050602081019050919050565b6000602082019050919050565b6000602082019050919050565b600081519050919050565b600081519050919050565b600081519050919050565b600081519050919050565b6000602082019050919050565b6000602082019050919050565b600073ffffffffffffffffffffffffffffffffffffffff82169050919050565b60008115159050919050565b6000819050919050565b6000819050919050565b600073ffffffffffffffffffffffffffffffffffffffff82169050919050565b60008115159050919050565b6000819050919050565b6000819050919050565b82818337600083830152505050565b60005b83811015611cc2578082015181840152602081019050611ca7565b83811115611cd1576000848401525b50505050565b6000601f19601f83011690509190505600a265627a7a72305820c46904367b45fab78bbdaec96db2b31352c9770d54e10362d9be506436ac0d976c6578706572696d656e74616cf50037",
  "source": "pragma solidity ^0.4.25;\npragma experimental ABIEncoderV2;\n\nimport 'zeppelin-solidity/contracts/math/SafeMath.sol';\n\n/**\n * @title Utopia\n * @author Reza Bakhshandeh <reza[dot]bakhshandeh[at]gmail[dot]com>\n */\ncontract Utopia{\n    using SafeMath for uint256;\n\n    struct Land{\n        int256 x1;\n        int256 x2;\n        int256 y1;\n        int256 y2;\n        uint256 time;\n        string hash;\n    }\n\n    // admins\n    mapping(address => bool) public adminsMap;\n    address[] public admins;\n\n    address[] public owners;\n    mapping(address => Land[]) public lands;\n\n    bool public allowPublicAssign = true;\n\n    address public fundsWallet = 0x38e41787d3F428Fad17CfD5470C4cFC4c0Ee3738;\n\n    uint256 public unitLandPrice = 0.0001 ether;\n\n    constructor(){\n        admins[admins.length++] = msg.sender;\n        adminsMap[msg.sender] = true;\n    }\n\n    modifier isPublic(){\n        require(allowPublicAssign);\n        _;\n    }\n\n    modifier isAdmin(){\n        require(adminsMap[msg.sender]);\n        _;\n    }\n\n    function getOwners() view public returns (address[]) {\n        return owners;\n    }\n\n    \n    function getLands(address owner) view public returns (Land[]) {\n        return lands[owner];\n    }\n\n    function getLand(address owner, uint256 index) \n    view public returns (\n        int256 x1,\n        int256 y1,\n        int256 x2,\n        int256 y2,\n        uint256 time, string hash) {\n        if(lands[owner].length <= index){\n            return;\n        }\n        x1 = lands[owner][index].x1;\n        x2 = lands[owner][index].x2;\n        y1 = lands[owner][index].y1;\n        y2 = lands[owner][index].y2;\n        time = lands[owner][index].time;\n        hash = lands[owner][index].hash;\n    }\n\n\n    function assignLand(int256 x1, \n        int256 y1, int256 x2, int256 y2, string hash)\n                isPublic public payable{\n\n        uint256 cost = abs(x2-x1) * abs(y2-y1) * unitLandPrice;\n        assert(msg.value >= cost);\n\n        fundsWallet.transfer(msg.value);\n\n        if(!(lands[msg.sender].length > 0)){\n            owners[owners.length++] = msg.sender;\n        }\n        lands[msg.sender].push(Land(\n            x1,\n            x2,\n            y1,\n            y2,\n            now,\n            hash\n        ));\n    }\n\n    function adminAssignLand(int256 x1, \n        int256 y1, int256 x2, int256 y2, address addr) isAdmin{\n        if(!(lands[addr].length > 0)){\n            owners[owners.length++] = addr;\n        }\n\n        lands[addr].push(Land(\n            x1,\n            x2,\n            y1,\n            y2,\n            now,\n            \"\"\n        ));\n    }\n\n    function adminSetIsPublic(bool val) isAdmin{\n        allowPublicAssign = val;\n    }\n\n    function adminSetUnitLandPrice(uint256 price) isAdmin{\n        unitLandPrice = price;\n    }\n\n    function addAdmin(address addr) isAdmin{\n        assert(addr != address(0));\n        admins[admins.length++] = addr;\n        adminsMap[addr] = true;\n    }\n\n    function updateLand(string hash, uint256 index) returns (bool){\n        if(lands[msg.sender].length <= index){\n            return false;\n        }\n        lands[msg.sender][index].hash = hash;\n        return true;\n    }\n\n    function landPrice(int256 x1, \n        int256 y1, int256 x2, int256 y2)\n                view public returns(uint256){\n        return abs(x2-x1) * abs(y2-y1) * unitLandPrice;\n    }\n\n    function abs(int256 x) view public returns (uint256) {\n        return uint256(x > 0 ? x : -1*x);\n    }\n}\n",
  "sourcePath": "/home/projects/projects/utopia_smart_contracts/contracts/Utopia.sol",
  "compiler": {
    "name": "solc",
    "version": "0.4.25+commit.59dbf8f1.Emscripten.clang"
  },
  "schemaVersion": "2.0.2",
  "updatedAt": "2020-05-19T20:42:44.575Z"
}